:020000040800F2
:10000000F0070020D5010008EB1D0008691000086A
:10001000E71D000831080008FF2400080000000068
:10002000000000000000000000000000A51F000804
:10003000F50C000800000000711E0008792200087D
:10004000EF010008EF010008EF010008EF010008D0
:10005000EF010008EF010008EF010008EF010008C0
:10006000EF010008EF010008EF010008EF010008B0
:10007000EF010008EF010008EF010008EF010008A0
:10008000EF010008EF010008EF010008EF01000890
:10009000EF010008EF010008EF010008EF01000880
:1000A000EF010008EF010008EF010008EF01000870
:1000B000EF010008EF010008EF010008EF01000860
:1000C000EF010008EF010008EF010008EF01000850
:1000D000EF010008DD220008EF010008EF01000831
:1000E000EF010008EF010008EF010008EF01000830
:1000F000EF010008EF010008EF010008EF01000820
:10010000EF010008EF010008EF010008EF0100080F
:10011000EF010008EF010008EF010008EF010008FF
:10012000EF010008EF010008EF010008EF010008EF
:1001300000F002F800F03FF80AA090E8000C8244BA
:100140008344AAF10107DA4501D100F034F8AFF297
:10015000090EBAE80F0013F0010F18BFFB1A43F0A5
:1001600001031847148F0000348F0000103A24BF99
:1001700078C878C1FAD8520724BF30C830C144BF0C
:1001800004680C607047000000230024002500264E
:10019000103A28BF78C1FBD8520728BF30C148BFEA
:1001A0000B607047642900F0A380002070471FB5E2
:1001B0001FBD10B510BD00F00DFB1146FFF7F7FF96
:1001C00003F05FFF00F02BFB03B4FFF7F2FF03BC6B
:1001D00002F01BFA0948804709480047FEE7FEE79E
:1001E000FEE7FEE7FEE7FEE7FEE7FEE7FEE7FEE7E7
:1001F00004480549054A064B704700007D22000867
:1002000031010008F0010020F0070020F003002079
:10021000F0030020704710B54C1084EA530404D555
:100220004042C1F1000138BF491E1B4204D5524271
:10023000C3F1000338BF5B1E00F06AF914F0804F71
:1002400004D04042C1F1000138BF491E14F0004FF4
:1002500004D05242C3F1000338BF5B1E10BD000042
:100260000FB4044910B503AA029800F04BFA10BC71
:100270005DF814FB740000200FB41CB5074B06AAF0
:100280007B4469460090059800F023FA00206946F7
:1002900000F032FA1CBC5DF814FB0000750400008D
:1002A00070B5044685690068C10601D5302600E0B6
:1002B0002026C00707D070BDD4E901213046904701
:1002C000206A401C20626D1EF6D570BD70B50446D4
:1002D00085690078C00707D170BDD4E901212020CD
:1002E0009047206A401C20626D1EF6D570BD00004C
:1002F0002DE9F0410646002410687529314616A5FF
:1003000010D0AFF30080002802DA404213A507E0C6
:1003100031688A0701D512A502E0490704D511A565
:10032000012401E0AFF3008000210A2206F1240736
:1003300009E0B0FBF2FCB0FBF2F302FB1C00303032
:1003400078541846491C0028F3D123462A463046E3
:10035000BDE8F04100F05EB9000000002D00000093
:100360002B000000200000002DE9F05F89460446C4
:100370004FF0000ADFF824B1FB44C0F820A020466B
:10038000E168884700287DD0252806D0D4E90121DE
:100390009047206A401C2062F1E700255F46204616
:1003A000E16888472028064607DB312E05D2B819B8
:1003B00010F8200C08B10543F1E7A80701D525F096
:1003C0000405C4F81CA00027C4F818A02A2E09D0E0
:1003D000304602F013F938B304EB8708303EC8F812
:1003E000186019E059F8041B204604EB870291615C
:1003F000E1688847012F064618D1E069002820DA15
:1004000025F020051DE0D8F8180000EB800006EB71
:1004100040003038C8F818002046E1688847064692
:1004200002F0ECF80028EED1012F0AD02E2E08D1D0
:100430002046E16888477F1C0646022F45F02005CC
:10044000C4DBA069002803DA404245F00105A06141
:10045000E80701D025F01005A6B1A6F14100192842
:1004600002D8203645F400654A46314620462560CC
:100470004D46FFF797FE60B1012807D0ED1D25F02E
:10048000070000E007E000F1080978E705F104093A
:1004900075E730467AE7206ABDE8F09FAA8B000036
:1004A00040EA010310B59B070FD1042A0DD310C8F1
:1004B00008C9121F9C42F8D020BA19BA884201D943
:1004C000012010BD4FF0FF3010BD1AB1D30703D08B
:1004D000521C07E0002010BD10F8013B11F8014B41
:1004E0001B1B07D110F8013B11F8014B1B1B01D15D
:1004F000921EF1D1184610BD02F0FF0343EA032219
:1005000042EA024200F012B97047704770477047E4
:1005100053EA020C00F069802DE9F04B4FF0000621
:10052000002B1FBFB3FA83F503FA05F424FA05F68E
:100530005E4012BF1643B2FA82F502FA05F4C5F125
:1005400020051EBF22FA05FC44EA0C04203556EAB9
:10055000044C4FEA144418BF641C4FF000084FF0DD
:100560000009904271EB030C39D3002919BFB1FA8D
:1005700081F701FA07F6B0FA80F700FA07F6C7F13B
:1005800020071EBF20FA07FC46EA0C062037B6FB00
:10059000F4FCA7EB0507103F07F01F0BCBF120067B
:1005A0000CFA0BFB2CFA06F644BFB3460026202FAC
:1005B000A4BF5E464FF0000B5BEA060C08BF4FF08D
:1005C000010B19EB0B09ABFB027C48EB0608C01BC7
:1005D00006FB02CC0BFB03CC71EB0C01C1E70B4615
:1005E000024641464846BDE8F08B13B54FF0000087
:1005F0004FF00001AFF30080BDE81C40704710B51C
:1006000000F0B4F8006810BD10B5044600F0AEF874
:10061000046010BD2DE9F0470D4699469246044608
:1006200000F124080168880604D5E06921F0100172
:10063000216000E00120A84201DD471B00E0002707
:10064000A1697A1902EB0900081AA0612078C00696
:1006500002D42046FFF724FE002608E0D4E9012159
:100660001AF806009047206A401C761C20624E450E
:10067000F4DB2078C0060AD52046FFF711FE06E01D
:10068000D4E9012130209047206A401C2062381EA6
:10069000A7F10107F4DC07E0D4E9012118F805000F
:1006A0009047206A401C2062281EA5F10105F3DC5A
:1006B0002046FFF70BFE2078000602D50220BDE899
:1006C000F0870120FBE7000001694A1C02610878FD
:1006D000704700B58FB0CDE9013100210591054982
:1006E0007944CDE9031011466846FFF73DFE0FB08F
:1006F00000BD0000E5FFFFFF0A6802F8010B0A6079
:1007000070470000074B70B50D467B44FFF7E1FFD3
:100710000446284600F02EF810B14FF0FF3070BDAF
:10072000204670BDAF3200004FF000020429C0F037
:10073000128010F0030C00F02380CCF1040CBCF10B
:10074000020F18BF00F8012BA8BF20F8022BA1EB65
:100750000C0100F015B85FEAC17C24BF00F8012B42
:1007600000F8012B48BF00F8012B70470048704784
:100770008C010020007B00F0800070474FF00002E9
:1007800000B5134694469646203922BFA0E80C5087
:10079000A0E80C50B1F12001BFF4F7AF090728BF62
:1007A000A0E80C5048BF0CC05DF804EB890028BFDE
:1007B00040F8042B08BF704748BF20F8022B11F007
:1007C000804F18BF00F8012B7047000000487047A9
:1007D0008C0100207546FFF7F9FFAE46050069461B
:1007E000534620F00700854618B020B5FFF700FDFE
:1007F000BDE820404FF000064FF000074FF0000822
:100800004FF0000B21F00701AC46ACE8C009ACE8A2
:10081000C009ACE8C009ACE8C0098D46704710B506
:100820000446AFF300802046BDE81040FFF7CCBC83
:1008300000BFFEE7F0B585B0FE48807801287DD185
:10084000FC48007801287AD1FB48B0F90000002864
:1008500024DAF9480088404200B2F7490880084687
:10086000B0F900000A2190FBF1F201FB1204F248FA
:10087000B0F90000642190FBF1F523462A46EFA170
:10088000F048FFF7F9FCEF484EF67D734FF47842DD
:1008900064210090402000F00DFB1DE0E648B0F917
:1008A00000000A2190FBF1F201FB1204E248B0F9CA
:1008B0000000642190FBF1F523462A46E2A1E148BD
:1008C000FFF7DAFCDF484EF67D734FF4784264217F
:1008D0000090402000F0EEFAD748B0F900000A215D
:1008E00090FBF1F201FB1204D348B0F9000064213F
:1008F00090FBF1F522462946D5A0FFF7B1FCD84977
:10090000D848006805F036FE044605F097FD00B2B1
:10091000C94908800846B0F90000002824DA0846D2
:100920000088404200B208800846B0F900000A2161
:1009300090FBF1F201FB1204BF4801E021E177E1F5
:10094000B0F9000090FBF1F523462A46BBA1BD4853
:10095000FFF792FCBB484EF67D731F2228210090C2
:10096000402000F0A7FA1BE0B348B0F900000A21CC
:1009700090FBF1F201FB1204AF48B0F9000090FBCC
:10098000F1F523462A46B0A1AE48FFF775FCAD4805
:100990004EF67D731F2228210090402000F08AFA35
:1009A000A548B0F900000A2190FBF1F201FB120406
:1009B000A148B0F9000090FBF1F522462946AAA013
:1009C000FFF74EFCA649AC48006805F0D3FD04468D
:1009D00005F034FD00B2984908800846B0F90000DF
:1009E000002821DA08460088404200B20880084604
:1009F000B0F900000A2190FBF1F201FB12048E48CD
:100A0000B0F9000090FBF1F523462A468BA18D48F2
:100A1000FFF732FC8B484EF67D731F225021009069
:100A2000402000F047FA1BE08348B0F900000A219B
:100A300090FBF1F201FB12047F48B0F9000090FB3B
:100A4000F1F523462A4680A17E48FFF715FC7D4834
:100A50004EF67D731F2250210090402000F02AFAAC
:100A60007548B0F900000A2190FBF1F201FB120475
:100A70007148B0F9000090FBF1F5224629467FA0AD
:100A8000FFF7EEFB76498148006805F073FD0446E8
:100A900005F0D4FC00B2684908800846B0F90000AF
:100AA000002821DA08460088404200B20880084643
:100AB000B0F900000A2190FBF1F201FB12045E483C
:100AC000B0F9000090FBF1F523462A465BA15D4892
:100AD000FFF7D2FB5B484EF67D731F223C2100904E
:100AE000402000F0E7F91BE05348B0F900000A216C
:100AF00090FBF1F201FB12044F48B0F9000090FBAB
:100B0000F1F523462A4650A14E48FFF7B5FB4D4864
:100B10004EF67D731F223C210090402000F0CAF960
:100B20004548B0F900000A2190FBF1F201FB1204E4
:100B30004148B0F9000090FBF1F52246294654A047
:100B4000FFF78EFB5648006808B9012000E000203E
:100B500053490860002000F0B9FA5249087008466D
:100B60000078032809D10020324908704870FF201E
:100B700088704C49087000F00FFF00202D49087064
:100B8000B2E02C488078022852D12A480078012807
:100B90004ED14548B0F900004449B1F90010CDE903
:100BA00000104348B0F900304248B0F900204248F4
:100BB000B0F900104148B0F9000003F06DFA28497F
:100BC0003248006805F0D6FC074605F037FC04B251
:100BD0003B492448006805F0CDFC074605F02EFC93
:100BE00005B237492448006805F0C4FC074605F003
:100BF00025FC06B22C48B0F90000CDE9026504944A
:100C000001902A48B0F9000000902948B0F900305E
:100C10002848B0F900202848B0F900102748B0F95A
:100C2000000004F0E1FC002000F050FA1D4949E00A
:100C30005AE000001B000020180000202D2533641E
:100C40002E25640090000020202533642E256400AA
:100C50002074656D703A25642E2564200000000024
:100C600000002041000000202070697463683A256C
:100C7000642E2564200000000400002020726F6CA8
:100C80006C3A25642E256420000000000800002036
:100C9000207961773A25642E2564200D0A00000032
:100CA000888122421A000020160000201400002033
:100CB00012000020100000200E0000200C00002078
:100CC0000000C842087008460078032809D10020B7
:100CD000064908704870FF2088700549087000F0C8
:100CE0005BFE00200149087005B0F0BD1B0000202C
:100CF0001A00002070472DE9F04102460025002629
:100D0000002000230024002791F803C00CF00F05F9
:100D100091F803C00CF0100CBCF1000F03D091F857
:100D200002C04CEA050591F800C0BCF1000F31D0BB
:100D3000146800202BE04FF0010C0CFA00F3B1F81E
:100D400000C00CEA03069E4220D183004FF00F0C36
:100D50000CFA03F7BC4305FA03FC4CEA040491F8CF
:100D600003C0BCF1280F06D14FF0010C0CFA00FCB7
:100D7000C2F814C00AE091F803C0BCF1480F05D1D5
:100D80004FF0010C0CFA00FCC2F810C0401C0828FF
:100D9000D1D31460B1F800C0BCF1FF0F34DD54684A
:100DA00000202EE000F1080C4FF0010808FA0CF3C7
:100DB000B1F800C00CEA03069E4221D183004FF037
:100DC0000F0C0CFA03F7BC4305FA03FC4CEA0404CD
:100DD00091F803C0BCF1280F05D100F1080C08FA06
:100DE0000CF8C2F8148091F803C0BCF1480F07D189
:100DF00000F1080C4FF0010808FA0CF8C2F8108056
:100E0000401C0828CED35460BDE8F081F0B50A46F6
:100E1000002300240021002500F00046B6F1004F19
:100E200002D11D4EF16901E01B4E7168C0F303450C
:100E300083B200F44016B6F5401F08D121F070616E
:100E4000154E766826F07066134F7E6012E000F44F
:100E50008016B6F5801F06D1032606FA05F4A143D5
:100E600041F0706106E0460D360103FA06F6B14323
:100E700041F0706122B1460D360103FA06F63143A6
:100E800000F00046B6F1004F02D1034EF16101E0DF
:100E9000014E7160F0BD00000000014002460020DC
:100EA00093680B400BB1012000E000207047016106
:100EB000704700002DE9F84F0746884693469A464A
:100EC000DDF828900097B3E099F8000080283DDA1B
:100ED00099F800600D2E05D1009F08F110001FFA4F
:100EE00080F830E0202E03DDA6F1200086B200E07D
:100EF0000026002422E000251CE004EB06105049E7
:100F0000085C80212941084040B108EB040291B2FD
:100F10007A1990B25A4600F097F809E0D34507D005
:100F200008EB040291B27A1990B2524600F08CF8A4
:100F3000681CC5B2082DE0DB601CC4B2102CDADBE3
:100F400007F1080087B209F1010971E0002668E0A5
:100F500006EB06103B4911F8100099F80010884282
:100F60005DD106EB0610374901EB4000407899F857
:100F70000110884253D100244FE0002520E006EB09
:100F80000610304901EB4000801C10F8141080203E
:100F90002841014041B108EB040291B27A1990B2A4
:100FA0005A4600F051F809E0D34507D008EB040297
:100FB00091B27A1990B2524600F046F8681CC5B258
:100FC000082DDCDB002524E006EB06101D4901EBB3
:100FD0004000801C012101EB4401405C802129413B
:100FE000084048B108EB040291B27A19083290B275
:100FF0005A4600F029F80AE0D34508D008EB04026D
:1010000091B27A19083290B2524600F01DF8681C6D
:10101000C5B2082DD8DB601CC4B2102CADDB701C2F
:1010200086B2322E94DB09F1020907F1100087B273
:1010300099F8000000287FF447AFBDE8F88F000062
:101040004A690008BC76000870B504460D4616468D
:10105000681C83B2601C82B22946204600F03AFA2E
:10106000304600F0BBF870BD00BFFEE708B50121B7
:10107000142000F0FFFE01211148FFF7C7FE4FF4D6
:101080000040ADF8000048208DF8030069460D4887
:10109000FFF731FE2020ADF8000048208DF8030056
:1010A00069460948FFF727FE0120ADF80000282017
:1010B0008DF8030069460348FFF71DFE08BD0000D8
:1010C00000023000000801400010014010B5044645
:1010D00014B10120244908702348007868B3202106
:1010E0002248FFF7DBFE58B14FF400412048FFF7DC
:1010F000D5FE28B101211E48FFF7D0FE01281CD1E2
:101100000A2001F035FE00201749087020211748F9
:10111000FFF7C4FE08B9012010BD4FF40041144888
:10112000FFF7BCFE08B90220F6E701211048FFF7DF
:10113000B5FE012815D10320EEE720210B48FFF76B
:10114000ADFE01280DD1C1030948FFF7A7FE012814
:1011500007D101210648FFF7A1FE10B9012002497D
:1011600008700020D8E70000340000200010014083
:101170000008014008B50121084600F07BFE01216E
:101180001348FFF743FE01211C2000F073FE0121EC
:10119000242000F06FFE4FF41860ADF8000003202B
:1011A0008DF8020010208DF8030069460948FFF70A
:1011B000A2FD4FF4E060ADF8000003208DF80200BE
:1011C00010208DF8030069460348FFF794FD08BD21
:1011D00000023000000C01400010014010B5044630
:1011E0004FF48070084908608020091F08602012B1
:1011F00000F0BAFEE0B200F0B7FE4FF48070024992
:10120000091F086010BD0000140C014008B5012141
:10121000242000F02FFE0420ADF8000010208DF8EF
:10122000030003208DF8020069460A48FFF763FDBA
:1012300004210848FFF73BFE4FF48070ADF8000032
:1012400069460548FFF757FD4FF480710248FFF7E4
:101250002EFE08BD001401400008014070B506468E
:101260009F237F220021084600F034F92C2000F053
:1012700071F9002408E0002503E03046FFF7AEFFD7
:101280006D1CA02DF9D3641C802CF4D370BD10B557
:10129000FFF770FF00F00CF9112000F05BF97820E7
:1012A00001F066FDB12000F055F9012000F03EF993
:1012B0002C2000F03BF92D2000F038F9B22000F08E
:1012C00049F9012000F032F92C2000F02FF92D20EF
:1012D00000F02CF9B32000F03DF9012000F026F9D0
:1012E0002C2000F023F92D2000F020F9012000F03F
:1012F0001DF92C2000F01AF92D2000F017F9B42068
:1013000000F028F9072000F011F9C02000F022F9C0
:10131000A22000F00BF9022000F008F9842000F070
:1013200005F9C12000F016F9C52000F0FFF8C22031
:1013300000F010F90A2000F0F9F8002000F0F6F8AB
:10134000C32000F007F98A2000F0F0F82A2000F00E
:10135000EDF8C42000F0FEF88A2000F0E7F8EE2057
:1013600000F0E4F8C52000F0F5F80E2000F0DEF8FB
:10137000362000F0EFF8C82000F0D8F8E02000F0A8
:10138000E9F80F2000F0D2F81A2000F0CFF80F2073
:1013900000F0CCF8182000F0C9F82F2000F0C6F8B3
:1013A000282000F0C3F8202000F0C0F8222000F030
:1013B000BDF81F2000F0BAF81B2000F0B7F823207A
:1013C00000F0B4F8372000F0B1F8002000F0AEF8DB
:1013D000072000F0ABF8022000F0A8F8102000F081
:1013E000A5F8E12000F0B6F80F2000F09FF81B20D0
:1013F00000F09CF80F2000F099F8172000F096F804
:10140000332000F093F82C2000F090F8292000F011
:101410008DF82E2000F08AF8302000F087F8302078
:1014200000F084F8392000F081F83F2000F07EF8C9
:10143000002000F07BF8072000F078F8032000F08F
:1014400075F8102000F072F82A2000F083F80020D0
:1014500000F06CF8002000F069F8002000F066F859
:101460007F2000F063F82B2000F074F8002000F0DB
:101470005DF8002000F05AF8002000F057F89F2097
:1014800000F054F8F02000F065F8012000F04EF86C
:10149000F62000F05FF8002000F048F83A2000F055
:1014A00059F8052000F042F8292000F053F810BD4B
:1014B00010B54FF4806006494861642001F058FC83
:1014C0004FF4806002490861322001F051FC10BDE8
:1014D00000100140F0B504460D4616461F462A206E
:1014E00000F038F8002000F021F8A11CC8B200F08C
:1014F0001DF8002000F01AF8B11CC8B200F016F870
:101500002B2000F027F8002000F010F8691CC8B26A
:1015100000F00CF8002000F009F8791CC8B200F0C7
:1015200005F82C2000F016F8F0BD000010B50446B8
:101530004FF48070064908608020091F086020462B
:1015400000F012FD4FF480700149091F086010BDC2
:10155000140C014010B504464FF480700649086031
:1015600080200860204600F0FFFC4FF480700249A4
:10157000091F086010BD0000140C01402DE9FC415A
:1015800004460D4616466B4606223B21682000F0B5
:1015900054FB0746BFB99DF801009DF8001040EAD2
:1015A000012000B220809DF803009DF8021040EA5F
:1015B000012000B228809DF805009DF8041040EA43
:1015C000012000B230803846BDE8FC812DE9FC41A5
:1015D00004460D4616466B4606224321682000F05D
:1015E0002CFB0746BFB99DF801009DF8001040EAAA
:1015F000012000B220809DF803009DF8021040EA0F
:10160000012000B228809DF805009DF8041040EAF2
:10161000012000B230803846BDE8FC812DE9F84F4A
:101620006B4602224121682000F007FB9DF8010073
:101630009DF8001040EA01200FFA80FA504604F0AD
:101640007BFA804600220B4B04F01EF906460A4A3C
:101650000A4B04F069F8044604F034F8834608495C
:10166000584604F087FF044604F0E8FE00B2BDE8E7
:10167000F88F000000407540A4703D0AD7434240F7
:101680000000C84210B500200E4908600E484068AE
:1016900020F470400C4948600846406840F44050CF
:1016A000486000200949C1F8AC0100F011F80120A0
:1016B0000449086000F00CF800200449C1F8B001AA
:1016C00010BD0000B0012242001001400000224283
:1016D00010B5022001F072FB10BD000008B5012119
:1016E000102000F0C7FB4FF4C050ADF800001020F0
:1016F0008DF8030003208DF8020069460448FFF7C7
:10170000FAFA4FF4C0510248FFF7D1FB08BD0000C0
:101710000010014010B500200E4908600E484068D6
:1017200020F470400C4948600846406840F440503E
:10173000486001200949C1F8AC01FFF7C9FF012049
:1017400004490860FFF7C4FF00200449C1F8B00154
:1017500010BD0000B00122420010014000002242F2
:1017600070B5054600241648406820F470401449BE
:1017700048600846406840F400404860002614E095
:10178000002010490860FFF7A3FF01200E49C1F8AF
:10179000B0016006040E0B488438006808B1601C74
:1017A000C4B2FFF795FF701CC6B2082EE8DB15B96E
:1017B000FFF7B0FF01E0FFF765FF204670BD0000B6
:1017C00000100140B00122420000224270B50446E0
:1017D0001248406820F4704010494860084640684C
:1017E00040F44050486000200D490860002512E098
:1017F000E0090B49091F08606006040E0120094931
:10180000C1F8B001FFF764FF002005490860FFF749
:101810005FFF681CC5B2082DEADB70BD00100140F7
:10182000B00122420000224210B50E48406820F468
:1018300070400C4948600846406840F44050486099
:101840000120094908600949C1F8B001FFF740FFCC
:10185000002005490860FFF73BFF00200349C1F85D
:10186000B00110BD00100140AC0122420000224234
:1018700010B50E48406820F470400C494860084696
:10188000406840F440504860002009490860094918
:10189000C1F8AC01FFF71CFF0120054908600549AC
:1018A000C1F8AC01FFF714FF10BD000000100140AB
:1018B000B00122420000224210B5002414484068C2
:1018C00020F47040124948600846406840F40040E7
:1018D000486001200F490860FFF7FAFE01200E4919
:1018E000C1F8B001FFF7F4FE07E0601CC4B2FA2CA7
:1018F00003DDFFF7BDFF012010BD064880380068FA
:101900000028F2D10349091D086000BFF4E7000078
:1019100000100140AC0122420000224210B5FFF746
:10192000DDFE80216B2000F00CFA642001F020FA2B
:1019300000216B2000F005FA032000F0C0F9002020
:1019400000F0B5F9322000F0DFF90021382000F076
:10195000F8F900216A2000F0F4F90021232000F0BA
:10196000F0F98021372000F0ECF9752000F048F9FB
:101970000446682C0BD101216B2000F0E2F9002114
:101980006C2000F0DEF9322000F0BEF901E0012009
:1019900010BD0020FCE7000008B54EF67D70FFF793
:1019A0005DFC4BA04EF67D731F2210210090182085
:1019B000FFF780FA49A04EF67D731F223C2100906C
:1019C0000C20FFF777FA49A04EF67D731F225021B5
:1019D00000900C20FFF76EFA48A04EF67D731F2290
:1019E000642100900C20FFF765FA6EE00020FFF7FD
:1019F0006DFB4549087008460078012838D14349F5
:101A000088704FF4E13003F063FD4EF67D70FFF710
:101A100025FC3FA04EF67D7300221021009020206F
:101A2000FFF748FA3DA04EF67D731F222821009053
:101A30000820FFF73FFA3DA04EF67D731F223C21A0
:101A400000900820FFF736FA3CA04EF67D731F2267
:101A5000502100900820FFF72DFA3CA04EF67D7330
:101A60004FF47842642100900820FFF723FA2DE01C
:101A700025480078022825D124498870374803F08A
:101A800027FD4EF67D70FFF7E9FB35A04EF67D731E
:101A90000022102100902020FFF70CFA33A04EF610
:101AA0007D734FF478423C2100901C20FFF702FA2E
:101AB00031A04EF67D731F226E2100901820FFF793
:101AC000F9F903E00A2001F053F98FE708BD00009F
:101AD000C4A3CABDD1A1D4F13F0000004B45593089
:101AE0003ACAB5CAB1CAFDBEDD0000004B45593146
:101AF0003AC4A3C4E2CBC4D6E1000000574B5F5503
:101B0000503AB7B5BBD800001A0000201B000020D7
:101B1000CAB5CAB1CAFDBEDD00000000B8A9D1F641
:101B2000BDC73A202020202020A1E300C6ABBABDCB
:101B3000BDC73A202020202020A1E300B7ADB9F690
:101B4000BDC73A202020202020A1E300CEC2B6C885
:101B5000D6B53A202020202020A1E60020A10700B1
:101B6000C4A3C4E2CBC4D6E100000000C9CFB4AB2B
:101B7000D6D02E2E2E00000032303231C4EA31D4BD
:101B8000C23232C8D500000010B5124A12491348BB
:101B900002F0F2FAD0B9FFF741FD11490880114A6D
:101BA00011491248FFF7EAFC114A12491248FFF79F
:101BB0000DFD12484078401C104948700846407896
:101BC000012806D108700020487002E000200B496F
:101BD000087010BD08000020040000200000002054
:101BE00018000020100000200E0000200C00002033
:101BF0001600002014000020120000201B0000200E
:101C000070B50446FFF710FED020FFF7DFFDFFF7A9
:101C100053FE2046FFF7DAFDFFF74EFEFFF704FE06
:101C2000D120FFF7D3FDFFF747FE0020FFF798FD17
:101C30000546FFF71DFE284670BD2DE9F04106461A
:101C40000F4614461D46FFF7EFFD002141EA46010D
:101C5000C8B2FFF7BBFDFFF72FFE20B1FFF708FE6C
:101C60000120BDE8F0813846FFF7B0FDFFF724FE04
:101C7000FFF7DAFD012101EB4601C8B2FFF7A6FD2F
:101C8000FFF71AFE0DE0012C04D10020FFF768FDDC
:101C9000287003E00120FFF763FD2870601EC4B2C6
:101CA0006D1C002CEFD1FFF7E3FD0020D9E710B544
:101CB0000446E006010E1C2000F043F810BD10B5EC
:101CC0000446E006010E1B2000F03BF810BD70B585
:101CD00004460025BC2C01DB012510E0622C01DB51
:101CE00002250CE02A2C01DB032508E0142C01DB83
:101CF000042504E00A2C01DB052500E00625294621
:101D00001A2000F01EF870BD70B50446B4F57A7F55
:101D100001DD4FF47A74042C00DA04244FF47A7055
:101D200090FBF4F0401EC5B22946192000F009F8D6
:101D30000546264604EBD671C1F34F00FFF7C7FFF7
:101D400070BD70B505460C46FFF76EFDD020FFF75D
:101D50003DFDFFF7B1FD18B1FFF78AFD012070BD11
:101D60002846FFF733FDFFF7A7FD2046FFF72EFDBE
:101D7000FFF7A2FD18B1FFF77BFD0120EFE7FFF7AA
:101D800077FD0020EBE72DE9F04105460E461746AA
:101D90009846FFF749FD002141EA4501C8B2FFF727
:101DA00015FDFFF789FD20B1FFF762FD0120BDE8B9
:101DB000F0813046FFF70AFDFFF77EFD00240CE0BE
:101DC00018F80400FFF702FDFFF776FD18B1FFF7E2
:101DD0004FFD0120EBE7601CC4B2BC42F0DBFFF713
:101DE00047FD0020E3E700BFFEE7704770B5002124
:101DF00000230F22C47804B3154C246804F4E06473
:101E0000C4F5E064210AC1F10403CA40447804FA2D
:101E100003F184781440214309010E4C0678A15542
:101E2000047804F01F050124AC4005786D11AD0065
:101E300005F1E025C5F8004109E0047804F01F052C
:101E40000124AC40044D0678761145F8264070BD5B
:101E50000CED00E000E400E080E100E00249014315
:101E6000024A1160704700000000FA050CED00E026
:101E70007047000029B1064A92690243044B9A61F7
:101E800004E0034A92698243014B9A617047000063
:101E90000010024030B500210022002400232D4D07
:101EA0006D6805F00C0121B1042905D0082923D162
:101EB00005E0294D056022E0274D05601FE0254D16
:101EC0006D6805F47012234D6D6805F480340225A9
:101ED00005EB92421CB9214D554305600BE01D4DA9
:101EE0006D6805F400351DB11C4D5543056002E0D9
:101EF000194D5543056002E0174D056000BF00BF56
:101F0000144D6D6805F0F0010909154D6B5C05680D
:101F1000DD4045600F4D6D6805F4E061090A104D24
:101F20006B5C4568DD4085600A4D6D6805F4605165
:101F3000C90A0B4D6B5C4568DD40C560054D6D6899
:101F400005F44041890B074D6B5CC568B5FBF3F5A3
:101F5000056130BD0010024000127A0000093D000A
:101F60007A0000208A0000200021082114E000F0FF
:101F7000800222B14FF40072094B1A6103E04FF462
:101F80000072074B5A614FF48072054B5A611A6117
:101F90004206100E4A1ED1B20029E8DC704700004C
:101FA000001001407047000008B54FF4A060FFF733
:101FB00055FF00F0BBFE4FF4E13003F089FAFFF764
:101FC00025F9FFF753F8FFF762F94EF67D70FFF73A
:101FD00045F950A04EF67D7300221E21009004208A
:101FE000FEF768FF4FF400604E4908604EA04EF6C1
:101FF0007D731F22642100900C20FEF75BFFFFF72A
:102000008DFC26E04CA04EF67D734FF478423E21C5
:1020100000901420FEF74EFF4A48006808B90120DE
:1020200000E0002047490860322000F0A1FE464849
:10203000D0F8A00108B9012000E000204149086063
:102040003DA04EF67D731A463E2100901420FEF707
:1020500031FF02F0A3F90028D4D13CA04EF67D73E5
:102060004FF478423E2100901420FEF723FFC82051
:1020700000F07EFE35A04EF67D731A463E2100909C
:102080001420FEF717FFC82000F072FE2FA04EF6B6
:102090007D734FF478423E2100901420FEF70AFF32
:1020A000C82000F065FE29A04EF67D731A463E2139
:1020B00000901420FEF7FEFEC82000F059FE23A079
:1020C0004EF67D734FF478423E2100901420FEF7C7
:1020D000F1FE2148006808B9012000E000201E49F7
:1020E0000860322000F044FE1C48D0F8880108B98E
:1020F000012000E000201849086040F2E73000F0BD
:1021000037FE0020164908704870FF208870154976
:10211000087008BD4D505536303530CAFDBEDDB2B1
:10212000C9BCAF00100C0140CEF7B5E720C1F5C126
:10213000C1C9E8BCC6000000B3F5CABCBBAFCAA7A2
:10214000B0DC2100A001214200002142B3F5CABC4D
:10215000BBAFB3C9B9A621008881224200802242C8
:102160001B0000201A00002010B500F001F810BD7F
:102170000CB50020019000903348006840F4803096
:102180003149086000BF3048006800F4003000901A
:102190000198401C0190009818B90198B0F5A06F03
:1021A000F1D12948006800F4003010B101200090FE
:1021B00001E0002000900098012843D123480068E6
:1021C00040F01000214908600846006820F0030034
:1021D00008600846006840F0020008601A4840683D
:1021E000194948600846406848600846406840F41D
:1021F000806048600846406820F47C1048600846CB
:10220000406840F4E81048600846006840F080707C
:10221000086000BF0C48006800F000700028F9D08A
:102220000948406820F003000749486008464068B4
:1022300040F00200486000BF0348406800F00C0016
:102240000828F9D10CBD0000001002400020024017
:10225000042808D14FF0E021096941F004014FF052
:10226000E022116107E04FF0E021096921F004014B
:102270004FF0E022116170477047000010B513481D
:10228000006840F0010011490860084640681049A4
:1022900008400E494860084600680E4908400B494E
:1022A00008600846006820F48020086008464068FE
:1022B00020F4FE0048604FF41F008860FFF754FFD1
:1022C0004FF000600449086010BD0000001002409B
:1022D0000000FFF8FFFFF6FE08ED00E010B540F249
:1022E00025511D4800F04AF810B31B4800F002F9D0
:1022F000C4B21A48008800F40040C8B917480088E2
:1023000000F4804060B10A2C03D0002013490880FB
:1023100020E01248008840F400401049088019E08D
:102320000D2C06D10D48008840F480400B490880F0
:1023300010E00A480088C0F30D0009490C54074812
:102340000088401C0549088008460088C72801DD30
:102350000020088010BD00000038014078000020F7
:10236000C400002021B1828942F40052828104E03D
:1023700082894DF6FF731A408281704770B502461C
:10238000002400230025002040F66A16B14200D147
:1023900000BFC1F3421501F01F03012606FA03F343
:1023A000012D02D19689334006E0022D02D1168A12
:1023B000334001E0968A33400C12012606FA04F4F9
:1023C0001688344013B10CB1012000E0002070BD2C
:1023D000F0B50346002400260025002040F66A17C9
:1023E000B94200D100BF1846C1F3421401F01F06E4
:1023F000012707FA06F5012C01D10C3004E0022C6C
:1024000001D1103000E014301AB107682F43076083
:1024100002E00768AF430760F0BD00002DE9F04718
:1024200086B005460E460024A24600BFA1460027FE
:10243000B08900B100BF2F462C8A4CF6FF700440D3
:10244000F08804432C82AC894EF6F3100440B08827
:1024500031890843718908430443AC81AC8A4FF643
:10246000FF400440B0890443AC8201A8FFF712FD8D
:102470001F48874202D1DDF810A001E0DDF80CA072
:10248000A88900F4004040B10AEBCA0000EB0A1032
:1024900031684900B0FBF1F807E00AEBCA0000EB35
:1024A0000A1031688900B0FBF1F86420B8FBF0F045
:1024B00004012009642101FB1089A88900F400406F
:1024C00040B1322000EBC900B0FBF1F000F0070092
:1024D000044308E0322000EB09106421B0FBF1F066
:1024E00000F00F0004432C8106B0BDE8F087000027
:1024F0000038014001468888C0F30800704700BFDB
:10250000FEE7490050EAC12018BF04204A0D18BF59
:1025100040F0010040F2FF72B2EB515F08BF40F0A3
:102520000200012808BF052070472DE9F0414F1E29
:1025300000EBC7010446D1E9000115461E4637F0FD
:1025400006020DD02A46334603F00EFB7F1E04EB35
:10255000C703D3E9002303F0E7F837F00602F1D10F
:10256000022F25D0042F13D0062F18BFBDE8F0810D
:102570002A46334603F0F8FAD4E90A2303F0D4F8E4
:102580002A46334603F0F0FAD4E9082303F0CCF8E6
:102590002A46334603F0E8FAD4E9062303F0C4F8E8
:1025A0002A46334603F0E0FAD4E9042303F0BCF8EA
:1025B0002A46334603F0D8FAD4E9022303F0B4F8EC
:1025C0002A46334603F0D0FAD4E90023BDE8F041AF
:1025D00003F0AAB8012204F072B903F0A5B80022F2
:1025E00013461046114603F04FB90000024A00207E
:1025F000110704F064B9000001FDFFFF30380A281C
:1026000001D2012070470020704700BF70470000D2
:102610002DE9FE4F06460F460025684601F0DCF91D
:10262000002442E056F8240057F82410A0EB010AD9
:10263000BAF1000F01DB514601E0CAF10001084682
:1026400003F038FF83464FF08F4103F001FE8046D0
:102650005DF82400002103F0BDFE16D05DF82410C3
:10266000404603F0F5FD82464FF07E5104F080F8BD
:10267000814629F0004A0F48416A504604F046F866
:1026800012D20120A04005430EE00A48C16940462D
:1026900003F03CFF05D30748016A404604F036F8D2
:1026A00002D20120A0400543641C032CBADB28465B
:1026B000BDE8FE8F088300082DE9F04D8D4F21F015
:1026C000004A86B005460C46BA452ADBAAEB07004D
:1026D00028430AD08848824501DC1AD1CDB106B022
:1026E0002846BDE8F04DFFF775BF844A844B284665
:1026F00003F03AFA07460E46824A834B28462146A3
:1027000003F032FA06B03A463346BDE8F04D03F026
:102710000BB80120FDF778FF06B0BDE8F04DFFF7DC
:102720005EBF7A48824542DABAF1795F0BDA284611
:10273000FFF7E7FE042808BFFFF758FF284606B05A
:102740002146BDE8F08D2A460B46104603F00CFAF0
:10275000834602466E480E460B4606217844FFF734
:10276000E4FE5A46334603F0FFF9804669488A463C
:102770005A46334604217844FFF7D7FE5A4633467B
:1027800003F0F2F900223B4602F0CEFF02460B4670
:102790004046514603F078F82A46234603F0E4F910
:1027A00006B02A462346BDE8F04D02F0BDBF2846DC
:1027B00024F0004100223D463B4603F0D3FA4FF09F
:1027C000FF3204F07CF80646024653480F460B469B
:1027D00006217844FFF7A9FE32463B4603F0C4F9D0
:1027E000CDE900014D4832463B4604217844FFF7CD
:1027F0009CFE32463B4603F0B7F900222B4602F01E
:1028000093FF834602913046394602F03BFE8046F4
:1028100043480D46504517DCDDE900015A46029B4E
:1028200003F032F842462B4603F09EF942462B460F
:1028300002F07AFF012204F042F8304A304B03F0F4
:1028400083FB304A304B4CE04FF0000A52460B46B7
:10285000404602F069FFCDE9031052462B46104670
:10286000194603F081F932463B4603F07BFADDE975
:10287000033203F009F806460F46DDE900015A4627
:10288000029B03F001F8834600910122304639464D
:1028900004F015F8194A1A4B03F064FA06460F467D
:1028A00001224046294604F00AF85A46009B03F0EC
:1028B0005BF932463B4603F047FB06460F460122D2
:1028C0005046294603F0FBFF0E4DDFF858802A469C
:1028D000434603F047FA32463B4603F043FA2A46A2
:1028E000434603F03FFA002CD8BF81F0004106B008
:1028F000BDE8F08D0000F03F0000F07F075C14336E
:1029000026A6913C182D4454FB21F93F0000E03FDE
:10291000D8670000EE67000062670000786700007B
:102920003333EF3FFB21E93F2DE9F84F04460D46D5
:1029300021F0004000917349814211DC72498842C4
:1029400001DC06D12CB120462946BDE8F84FFFF73F
:1029500041BE6E48002DCCBF6D496E49BDE8F88F71
:102960006D49814211DD6D498142D8BF4FF0FF367C
:102970006DDD20462946FFF7C4FD042808BFFFF798
:1029800035FE20462946BDE8F88F6549654F25F09C
:102990000045814233DD6449814219DD002632461B
:1029A0004FF080432046294602F0BEFE80468A460C
:1029B00001222046294603F082FF00223B4603F015
:1029C000C3FA4246534602F05FFF04460D463EE01E
:1029D00001260022BA463B462046294602F0A4FEC4
:1029E00080460F46002253462046294603F0ACFAA3
:1029F00042463B4602F048FF04460D4627E04B495D
:102A000081421BDDDFF828A1022600225346204622
:102A1000294603F0A9F800223B4602F085FE8046D5
:102A20000F46002253462046294603F08DFA4246BF
:102A30003B4602F029FF04460D4608E003262246E5
:102A40002B4600203B4902F01FFF04460D4622465C
:102A50002B461046194603F087F88B4682460246FD
:102A60000B4603F081F807460246334888460B467A
:102A700006217844FFF759FD52465B4603F074F88F
:102A800082462E488B463A46434605217844FFF756
:102A90004CFD3A46434603F067F802460B46002ECB
:102AA000504659460CDA02F03FFE22462B4603F010
:102AB0005BF801B022462B46BDE8F04F03F052B957
:102AC00002F032FE22462B4603F04EF81C4A7A44AE
:102AD00002EBC603D3E9002303F036FA22462B4665
:102AE00003F032FA174A7A4402EBC603D3E9002313
:102AF00003F038F9009A002AB8BF81F00041BDE820
:102B0000F88F0000000010440000F07F182D44549E
:102B1000FB21F93FFB21F9BF0000DC3F0000203E14
:102B20000000F33F0000F03F0000E63F008003405C
:102B30000000F83F0000F0BF7A6500003865000033
:102B4000D66400009E6400002DE9F04D9446CCF15F
:102B5000000423F000464CEA0404524F46EAD474C1
:102B60009A46884621F00042BC4206D8454240EAD7
:102B7000050442EAD474BC4204D9BDE8F04D624673
:102B8000FFF72BBDAAF14055A5F17F6555EA0C046E
:102B90000BD0022404EAAA74434DDFF810E144EAA2
:102BA000D87452EA000B04D00CE0BDE8F04DFFF7FA
:102BB000BBBE002C14BF012CBDE8F08D022C30D020
:102BC000032C32D056EA0C0B0AD0BE4220D1BA42B6
:102BD00009D126F0804622F080423346114617E0A4
:102BE00000291ADB25E0DFF8C8B0FB44002C04BF45
:102BF000DBE90001BDE8F08D012C02BFDBE900013B
:102C000081F00041BDE8F08D022C0AD0032C0CD0DD
:102C1000BA4212D1B8F1000F0BDA23482549BDE8BA
:102C2000F08D28462449BDE8F08D28467146BDE860
:102C3000F08D1D482149BDE8F08D921B12153C2AEC
:102C4000C4BF19481D490EDCBAF1000FBEBF12F116
:102C50003C0F0020014606DB624602F015FE21F023
:102C60000041FFF761FE002C08BFBDE8F08D012C8C
:102C700004BF81F00041BDE8F08D114A114B022CD8
:102C800007D003F061F92A46BDE8F04D0A4B03F086
:102C90005BB903F059F92A46BDE8F04D064B03F045
:102CA00061B800000000F07F182D4454FB2109C0DA
:102CB00032640000FB21F9BFFB210940FB21F93FF1
:102CC000075C143326A6A13C2DE9F0410446E078C8
:102CD00000F0C006E07800F03F05607800F00100E9
:102CE00098B1EF102846E91705EB5171C910A5EB13
:102CF000C101491C01F0FF080B48006820B10A48D7
:102D0000414602683846904700BF607800F00800EE
:102D100030B10548406818B1B011034A516888477E
:102D20000020BDE8F0810000B400002010B56FF075
:102D30000400FFF78DFA0A4800680A49B0FBF1F079
:102D4000094908700846007800EB4001C1EBC0104B
:102D50004FF6FF7101EAC0000449088010BD000071
:102D60002000002000127A006E0000207000002079
:102D70000146114A12884A434FF0E0235A6100226B
:102D80009A611A46126942F001021A6100BF4FF0BF
:102D9000E022106900F001021AB100F48032002A2A
:102DA000F5D04FF0E022126922F001024FF0E0234B
:102DB0001A6100229A617047700000200146114A92
:102DC00012784A434FF0E0235A6100229A611A4672
:102DD000126942F001021A6100BF4FF0E02210694F
:102DE00000F001021AB100F48032002AF5D04FF051
:102DF000E022126922F001024FF0E0231A61002262
:102E00009A6170476E00002038B5044664B12020F6
:102E10008DF8000028208DF8010030208DF8020088
:102E200038208DF8030004E0A32204216846FDF752
:102E300063FB6A46042140F69E2002F051FA01F03D
:102E40003BFE38BD3EB5044602208DF80000CA2086
:102E50008DF80100E3208DF8020009208DF80300B1
:102E60006A460421682002F03BFAA3208DF8000096
:102E700004F0400048B1C0208DF80100C8208DF852
:102E80000200C2208DF8030006E0A3208DF80100A7
:102E90008DF802008DF8030004F4C07048B1C4201E
:102EA0008DF80400CC208DF80500C6208DF80600B2
:102EB00006E0A3208DF804008DF805008DF80600CB
:102EC000A3208DF807008DF808008DF809006A46E8
:102ED0000A2140F6A72002F003FA04F0030018B11B
:102EE00020208DF8000002E0D8208DF800006A460E
:102EF000012140F6B62002F0F3F904F0200018B1E9
:102F0000012000F0ADF802E0002000F0A9F804F480
:102F1000C07008B304F4807060B1B2208DF8000076
:102F20008B208DF80100B6208DF802009B208DF8D3
:102F300003000BE0B0208DF8000080208DF8010028
:102F4000B4208DF8020090208DF803006A46042119
:102F500040F6A22002F0C4F904F0010020B3F820EA
:102F60008DF800006A4601214FF40B6002F0B8F9B9
:102F7000FA21072000F02CFC072000F0F3FB0120D1
:102F800000F013FC642000F0F3FC4FF4FA7000F042
:102F900002FDC821304800F0A3FB282000F0BCFB54
:102FA0000A2000F0CCFB08E0D8208DF800006A462B
:102FB00001214FF40B6002F093F904F0020018B104
:102FC000D9208DF8000002E0D8208DF800006A4674
:102FD000012140F23D7002F083F904F0040018B1C1
:102FE000012000F069F802E0002000F065F804F02C
:102FF000100018B10120FFF707FF02E00020FFF7E3
:1030000003FF44F008001549488101F055FD0020F8
:103010001249887304F0400018B10846807B801D77
:10302000887304F4C07020B10C48807B801D0B496C
:10303000887304F0140020B10848807B10300749E1
:10304000887304F0030020B10448807B001D03490D
:10305000887300203EBD000009E3CA02B4000020CE
:103060003EB504466CB10EA1D1E900208968CDE9D6
:10307000002002916A4609214FF4976002F030F96E
:103080003EBD0AA2D2E900109268CDE9010200918A
:103090006A4609214FF4976002F022F9F0E7000038
:1030A000B8AAB38DB4980D355D000000B8AAAAAADD
:1030B000B088C3C5C700000038B5044664B1C0205D
:1030C0008DF80000C2208DF80100C4208DF80200A8
:1030D000C6208DF8030004E08B2204216846FDF72A
:1030E0000BFA6A46042140F6982002F0F9F801F044
:1030F000E3FC38BD10B5C8234FF48062024940F6A6
:10310000F63001F06DFB10BD308300082DE9F04F63
:103110008DB00746884615469946DDE9166B0024B2
:10312000002030806B49887B5A4605A901F024FCB9
:1031300018B1601E0DB0BDE8F08F6648807A00F0CF
:103140001400002867D09DF8140000069DF81510A3
:1031500040EA01409DF8161040EA01209DF8171042
:10316000084328609DF8180000069DF8191040EAF1
:1031700001409DF81A1040EA01209DF81B100843F9
:1031800068609DF81C0000069DF81D1040EA014093
:103190009DF81E1040EA01209DF81F100843A8600A
:1031A0009DF8200000069DF8211040EA01409DF89E
:1031B000221040EA01209DF823100843E86004F142
:1031C0001000C4B2286800140190686800140290CE
:1031D000A86800140390E868001404900198404324
:1031E000029901FB0100039901FB0100049901FB15
:1031F000010ABAF1706F02DBBAF1885F05DD01F0F8
:103200005BFC00203080401E94E7B6F9000040F4DB
:103210008070308000BF2F48807A00F0400020B3DB
:1032200005A9601C085C095D40EA012000B2A8F80D
:10323000000005A9E01C095C05AAA01C105C41EA7D
:10324000002000B2A8F8020005A9601D095C201D3D
:10325000105C41EA002000B2A8F80400A01DC4B22E
:10326000B6F9000040F0080030801A48408900F4A8
:10327000C07008B305A9601C085C095D40EA012024
:1032800000B2388005A9E01C095C05AAA01C105CEE
:1032900041EA002000B2788005A9601D095C201D6C
:1032A000105C41EA002000B2B880A01DC4B2B6F99B
:1032B000000040F0700030800648807A00F0030083
:1032C00018B105A90819FFF7FFFC484600F0E3FE16
:1032D00000202FE7B400002070B588B0064601A892
:1032E00001F0D2F8BDF804000021C90341EA5045BD
:1032F000C4034448007A00F0030056F8200005900B
:103300004048007A00F0040010B105984042059052
:103310003C48007AC0F3C10056F8200006903948B6
:10332000007A00F0200010B106984042069035481F
:10333000007AC0F3811056F82000079031480089C8
:1033400000F4807010B10798404207900598C117AB
:10335000A0FB042301FB043100FB0510810041EABE
:10336000927005900698C117A0FB042301FB04315D
:1033700000FB0510810041EA927006900798C11782
:10338000A0FB042301FB043100FB0510810041EA8E
:10339000927007900598000E8DF808000598000CB3
:1033A0008DF809000598000A8DF80A000598C0B24A
:1033B0008DF80B000698000E8DF80C000698000C96
:1033C0008DF80D000698000A8DF80E000698C0B220
:1033D0008DF80F000798000E8DF810000798000C6C
:1033E0008DF811000798000A8DF812000798C0B2F6
:1033F0008DF8130002AA0C214FF4257001F070FF24
:1034000008B070BDB400002030B585B0044616A2E7
:1034100007CA02AB07C3C82C03DD4FF0FF3005B06D
:1034200030BDC82090FBF4F0401E85B2280A8DF80C
:103430000000E8B28DF801006A46022140F2162031
:1034400001F04EFF10B14FF0FF30E8E702AA0C2167
:1034500040F6C12001F044FF10B14FF0FF30DEE72D
:10346000044884810020DAE7FEF2ABC4AAF1DFDF72
:10347000BBAFDFDFB40000201FB504464848007A28
:1034800000F0030054F8200001904548007A00F055
:10349000040010B10198404201904148007AC0F305
:1034A000C10054F8200002903D48007A00F020004E
:1034B00010B10298404202903948007AC0F381105E
:1034C00054F8200003903648008900F4807010B151
:1034D0000398404203903349019880FB0101800F1B
:1034E00040EA810001902F49029880FB0110820080
:1034F00042EA917002902B49039880FB01108200F0
:1035000042EA917003900198000E8DF80000019836
:10351000000C8DF801000198000A8DF80200019856
:10352000C0B28DF803006A4604214FF4747001F0B4
:10353000D7FE18B14FF0FF3004B010BD0298000E56
:103540008DF800000298000C8DF801000298000A26
:103550008DF802000298C0B28DF803006A4604217B
:103560004FF4757001F0BCFE10B14FF0FF30E3E78F
:103570000398000E8DF800000398000C8DF80100F0
:103580000398000A8DF802000398C0B28DF803007A
:103590006A4604214FF4767001F0A2FECCE70000E9
:1035A000B400002009E3CA0210B586B0044647A063
:1035B0000068039046A00068029046A00068019051
:1035C00045A00068009004F0030003A9085C8DF892
:1035D000140003A8C4F3C101405C8DF8150003A8D2
:1035E000C4F38111405C8DF8160004F0030002A9B9
:1035F000085C8DF8100002A8C4F3C101405C8DF88E
:10360000110002A8C4F38111405C8DF8120005AAD4
:10361000032140F2264001F063FE18B14FF0FF3065
:1036200006B010BD04AA032140F22A4001F058FE62
:1036300010B14FF0FF30F3E7019805900098049027
:1036400004F0040058B19DF8140040F001008DF81A
:1036500014009DF8100040F001008DF8100004F0F7
:10366000200058B19DF8150040F001008DF81500BC
:103670009DF8110040F001008DF8110004F48070F5
:1036800058B19DF8160040F001008DF816009DF825
:10369000120040F001008DF8120005AA03214FF43A
:1036A000886001F01DFE10B14FF0FF30B8E704AAAA
:1036B000032140F2314001F013FE10B14FF0FF3012
:1036C000AEE7064804810020AAE700004CCD6C005C
:1036D0000CC92C003656760026466600B400002041
:1036E000F8B505460E464FF47A7095FBF0F000FBF6
:1036F00006F4200E8DF80000200C8DF80100200A41
:103700008DF80200E0B28DF803006A4604214FF400
:10371000AE7001F0E5FDF8BD38B50446052094FB18
:10372000F0F084B220128DF80000E0B28DF80100B4
:103730006A4602214FF4AD7001F0D2FD38BD38B5B4
:103740000446052094FBF0F084B220128DF80000AE
:10375000E0B28DF801006A4602214FF4AC7001F02E
:10376000BFFD38BD38B504460020009004F00100CC
:1037700020B19DF8000040F03000009004F00200FD
:1037800020B19DF8000040F00C00009004F004000F
:1037900020B19DF8000040F0030000906A4601212E
:1037A0004FF4A47001F09CFD38BD38B50446012CDF
:1037B00001DA012402E0042C00DD0424601EC0B202
:1037C00000906A46012140F24F1001F089FD38BD9A
:1037D0002DE9FC4706460F4606F0070010B1B7F585
:1037E000C86F03DD4FF0FF30BDE8FC87384602F0BC
:1037F00079FE8146594902F02BFD8046684600F06B
:103800001DFE9DF80000022806D0042816D00828C6
:1038100026D0102848D135E04FF08D41404602F0C7
:10382000A9FE814602F026FE84B24D49404602F0D0
:10383000A1FE814602F01EFE85B238E04FF08C41B9
:10384000404602F097FE814602F014FE84B24549DC
:10385000404602F08FFE814602F00CFE85B226E063
:103860004FF08B41404602F085FE814602F002FE99
:1038700084B23D49404602F07DFE814602F0FAFDE9
:1038800085B214E04FF08A41404602F073FE814653
:1038900002F0F0FD84B23549404602F06BFE8146ED
:1038A00002F0E8FD85B202E04FF0FF309CE700BF78
:1038B00020128DF80400E0B28DF8050028128DF872
:1038C0000600E8B28DF8070006F00100A0B101AAD9
:1038D00002214FF4EA7001F003FD10B14FF0FF3008
:1038E00082E70DF1060202214FF4927001F0F8FC1C
:1038F00010B14FF0FF3077E706F00200A0B101AA47
:1039000002214FF4EC7001F0EBFC10B14FF0FF30EE
:103910006AE70DF1060202214FF4947001F0E0FC19
:1039200010B14FF0FF305FE706F00400A0B101AA2C
:1039300002214FF4EE7001F0D3FC10B14FF0FF30D4
:1039400052E70DF1060202214FF4967001F0C8FC17
:1039500010B14FF0FF3047E7002045E70000484333
:10396000000040460000C045000040450000C04443
:1039700038B50446052094FBF0F085B228128DF886
:103980000000E8B28DF801006A4602214FF4EF70A2
:1039900001F0A6FC38BD38B50446052094FBF0F0D4
:1039A00085B228128DF80000E8B28DF801006A4651
:1039B00002214FF4ED7001F093FC38BD00BF054AC1
:1039C000128802F04002002AF9D0C2B2014B1B1D3E
:1039D0001A807047003801407CB50546284949687F
:1039E000087801AB04220D21FEF727F908B1072062
:1039F0007CBD9DF80700C0F301109DF8041001F094
:103A0000E00140EAE1008DF800009DF80700C0F3F6
:103A100081009DF8051001F0E00140EAE1008DF819
:103A200001009DF8070000F003009DF8061001F06A
:103A3000E00140EAE1008DF8020000241CE01DF8DE
:103A4000040018B9002045F8240013E00D4845F89B
:103A5000240006E055F824000B4902F08BFD45F8E0
:103A600024001DF80400401EC0B20DF80400002818
:103A7000F0D100BF601CC4B2032CE0DB0020B7E72C
:103A8000380000207B14AE3E1D5A843F2DE9F04FD4
:103A900087B005460C46914601208DF810000020A5
:103AA0008DF81100FE4A1268917CFD4A5268107828
:103AB00004AB0222FEF767F920B14FF0FF3007B0E8
:103AC000BDE8F08FC820FFF753F900208DF81000F3
:103AD000F34A1268D17BF24A5268107804AB012293
:103AE000FEF751F910B14FF0FF30E8E7EC4A1268E9
:103AF0005179EB4A5268107804AB0122FEF743F982
:103B000010B14FF0FF30DAE7E54A1268917CE44AE1
:103B10005268107804AB0122FEF735F910B14FF06E
:103B2000FF30CCE7DE4A1268D17DDD4A526810785A
:103B300004AB0122FEF727F910B14FF0FF30BEE7CA
:103B4000D74A12681179D64A5268107804AB01221C
:103B5000FEF719F910B14FF0FF30B0E70C208DF8E7
:103B60001000CF4A12681179CD4A5268107804AB20
:103B70000122FEF708F910B14FF0FF309FE70F2048
:103B8000FFF7F6F8C648806A407A8DF81000C44AFC
:103B900012689178C24A5268107804AB0122FEF78D
:103BA000F2F810B14FF0FF3089E7BD48806A007A23
:103BB0008DF81000BA4A12685178B94A52681078E4
:103BC00004AB0122FEF7DFF810B14FF0FF3076E7CB
:103BD000B9F1000F07D0B248806A807A40F0E00067
:103BE0008DF8100004E0AE48806A807A8DF81000ED
:103BF000AB4A12689179AA4A5268107804AB012244
:103C0000FEF7C1F810B14FF0FF3058E7B9F1000FDF
:103C100007D0A348806AC07A40F0E0008DF8100019
:103C200003E0A048C07A8DF810009D4A1268D1794F
:103C30009B4A5268107804AB0122FEF7A4F810B139
:103C40004FF0FF303BE7B9F1000F02D0C820FFF77B
:103C50008FF840208DF81000914A12681179904A2F
:103C60005268107804AB0122FEF78DF810B14FF0C6
:103C7000FF3024E778208DF81000894A12685179C6
:103C8000874A5268107804AB0122FEF77CF810B125
:103C90004FF0FF3013E783498889FFF769F8002068
:103CA0008DF810007E4A126851797D4A526810786A
:103CB00004AB0122FEF767F810B14FF0FF30FEE6CB
:103CC000774A1268917A764A5268107804AB0222D9
:103CD000FDF7B3FF10B14FF0FF30F0E69DF8110093
:103CE0009DF8101040EA012B0C209BFBF0F0C6B2AF
:103CF0000020A86068602860A06060602060824644
:103D000065E0674A1268D17A654A5268107804AB58
:103D10000C22FDF792FF10B14FF0FF30CFE69DF877
:103D200011009DF8101040EA012000B2ADF8080023
:103D30009DF813009DF8121040EA012000B2ADF882
:103D40000A009DF815009DF8141040EA012000B209
:103D5000ADF80C00BDF90810206808442060BDF9DA
:103D60000A10606808446060BDF90C10A06808443F
:103D7000A0609DF817009DF8161040EA012000B2DF
:103D8000ADF800009DF819009DF8181040EA0120D8
:103D900000B2ADF802009DF81B009DF81A1040EA31
:103DA000012000B2ADF80400BDF9001028680844F5
:103DB0002860BDF90210686808446860BDF9041005
:103DC000A8680844A8600AF1010000F0FF0AB245A3
:103DD00097DB3448D0F800C02868C117090441EACD
:103DE00010410704624600233846FCF714FA3246B5
:103DF0000023CDE90201FCF70EFA28602948D0F82B
:103E000000C06868C117090441EA1041070462460E
:103E100000233846FCF7FFF932460023CDE90201C2
:103E2000FCF7F9F968601F48D0F800C0A868C1170E
:103E3000090441EA10410704624600233846FCF7B2
:103E4000EAF932460023CDE90201FCF7E4F9A86063
:103E50001448D0F804C02168C817000440EA11488B
:103E60000F046246002338464146FCF7D4F9324637
:103E70000023CDE90201FCF7CEF920600948D0F813
:103E800004C06068C117090441EA10410704624692
:103E900000233846FCF7BFF93246002304E0000057
:103EA0003800002008830008CDE90201FCF7B3F9CF
:103EB00060601148D0F804C0A068C117090441EA45
:103EC00010410704624600233846FCF7A4F9324645
:103ED0000023CDE90201FCF79EF9A060A06800284C
:103EE00004DDA068A0F58030A06003E0A06800F5C4
:103EF0008030A0600020E2E5088300082DE9FC5F27
:103F000006460F4600253D494968087801AB032263
:103F10000D21FDF792FE10B10720BDE8FC9F9DF832
:103F2000040000F01F008DF804009DF8050000F06B
:103F30001F008DF805009DF8060000F01F008DF8A9
:103F40000600002456E056F8240057F82410A0EB91
:103F5000010BBBF1000F01DB594601E0CBF1000181
:103F6000084602F0A7FA4FF08F41009002F070F976
:103F7000814601A8005D68B32149086802F0B2FAE1
:103F8000834659461F4802F063F9804604E01E4903
:103F9000404602F0EFFA804601A8005D401EC0B224
:103FA00001A908550028F2D14146484602F050F9CF
:103FB00083464FF07E5102F0DBFB82462AF0004B35
:103FC0000F488169584602F0A1FB12D20120A0409F
:103FD00005430EE00A480169484602F097FA05D306
:103FE00007484169484602F091FB02D20120A040F7
:103FF0000543641C032CA6DB28468EE7380000200E
:104000000883000800B04C4554E3853F10B50446D2
:10401000204600F00FF80346E01C00F00BF843EADE
:10402000C00083B2A01D00F005F843EA801083B2FF
:10403000184610BD014691F90020002A01DD00203C
:104040001EE091F90020002A01DA042018E091F91D
:104050000120002A01DD012012E091F90120002A4F
:1040600001DA05200CE091F90220002A01DD02208E
:1040700006E091F90220002A01DA062000E007207C
:104080007047FDF791FFFDF787FC03E0FDF77CFD2E
:10409000FCF7D0FBFAE770472DE9FE4304460D46D6
:1040A00017461E46DDE90A89200A8DF80000E0B2B5
:1040B0008DF80100280A8DF80200E8B28DF803009F
:1040C000380A8DF80400F8B28DF80500300A8DF832
:1040D0000600F0B28DF807004FEA18208DF80800AE
:1040E00008F0FF008DF809004FEA19208DF80A004A
:1040F00009F0FF008DF80B000C226946A12001F0A9
:1041000037FABDE8FE83000070B50446002624F0AF
:104110000104184890F8240008B1002070BD15482B
:10412000807A10B94FF0FF30F8E71248057C807AAA
:104130002040104908740846007CA04202D04FF08D
:10414000FF3600E0002614B90A48007D18B10120AE
:1041500001F050F902E0002001F04CF93CB100F010
:10416000ABFC20B1034805744FF0FF30D6E7304672
:10417000D4E70000380000202DE9F04F99B0044644
:104180000D4616464FF07E574FF000084FF00009DD
:104190004FF0000A12A813A918AB0EAACDE900101F
:1041A00014A916A8FEF7B2FF18B1012019B0BDE896
:1041B000F08FBDF84C0000F4807000287ED00E987F
:1041C00002F078F983464FF09D4102F041F807462E
:1041D0000F9802F06FF983464FF09D4102F038F8D6
:1041E0008046109802F066F983464FF09D4102F038
:1041F0002FF88146119802F05DF983464FF09D41FA
:1042000002F026F8824639464FF0804002F0B2F9BB
:104210004946059002F0AEF9414607904FF0404004
:1042200002F0A8F95146059002F0A4F9069007990A
:1042300001F0A0FF834601F071FFCDE90801FEF710
:104240003BFA4FF06632544BCDE90A0101F08CFC89
:10425000CDE90C0101F036FA206049464FF080406C
:1042600002F088F94946029002F084F94146049030
:104270004FF0404002F07EF94146029002F07AF998
:104280000390049902F074FA83464FF07E5101F0D6
:1042900071FF059001F042FFCDE9080139464FF06A
:1042A000804002F067F94146039002F063F9494605
:1042B00004904FF0804002F05DF900E068E0514664
:1042C000039002F057F98346049901F053FF0590DB
:1042D00001F024FFCDE90601DDE90823FEF734FCF7
:1042E0004FF066322C4BCDE90A0101F03DFCCDE9DF
:1042F0000C0101F0E7F928605146504602F03AF906
:1043000049460490484602F035F94146039040463C
:1043100002F030F939460190384602F02BF900904E
:10432000019901F027FF0290039902F021FA8346D8
:10433000049902F01DFA059001F0F0FECDE90801A4
:104340005146384602F016F949460490404602F0BC
:1043500011F90390049901F00DFF4FF08041059091
:1043600002F008F9834601F0D9FECDE90601DDE946
:104370000823FEF7E9FB4FF06632074BCDE90A014F
:1043800001F0F2FBCDE90C0101F09CF9306001E095
:1043900002200BE7002009E766A64C4070B5002418
:1043A000FDF79CF900F024F9002840D1782000F0B6
:1043B0002FFFC4B20CB1012070BD7820FFF7A4FE1E
:1043C000C4B20CB10220F7E7642000F0D3FEC4B2FF
:1043D0000CB10320F0E7FEF78DFEC4B20CB104204F
:1043E000EAE71548FFF712FE0546FFF7DDF8C4B20D
:1043F0000CB10520E0E740F27310FEF723FDC4B2D4
:104400000CB10620D8E76420FEF7FEFFC4B20CB161
:104410000720D1E700F0A4FF04460CB10820CBE749
:10442000012000F0A3FDC4B21CB10920C4E70A209A
:10443000C2E70020C0E700006400002001461148E8
:10444000407A30B1012807D0022808D003280CD1C7
:1044500008E0022008700BE00420087008E0082043
:10446000087005E01020087002E04FF0FF30704740
:1044700000BF0448C07C18B108784006000E0870E0
:104480000020F4E73800002001461348407A30B19C
:10449000012808D002280AD0032810D10BE04FF4DD
:1044A000804008800EE041F69C7008800AE04FF4DE
:1044B0008050088006E04FF40060088002E04FF072
:1044C000FF30704700BF0448C07C10B1088840101E
:1044D00008800020F5E7000038000020014602486F
:1044E000007C0870002070473800002001460F480B
:1044F000007A30B1012807D0022809D003280FD153
:104500000AE0FA2008800EE04FF4FA7008800AE012
:104510004FF47A70088006E04FF4FA60088002E0F9
:104520000020088000BF00BF002070473800002036
:1045300001460E48007A30B1012807D0022808D081
:1045400003280CD108E00A4808600BE0094808601D
:1045500008E00948086005E00848086002E04FF0FC
:10456000FF30704700BF0020FBE70000380000204C
:10457000000003430000834233330342333383415B
:1045800001461248C07A082817D2DFE800F0170465
:10459000070A0D101318BC20088013E06220088061
:1045A00010E02A2008800DE0142008800AE00A208C
:1045B000088007E00520088004E000BF00BF00205D
:1045C000088000BF00BF00207047000038000020B6
:1045D0000146064890F8240010B14FF0FF307047B4
:1045E0000248C08908800020F9E700003800002058
:1045F0001CB580208DF80000654A1268917C644AE1
:10460000526810786B460122FDF7BDFB10B14FF0E8
:10461000FF301CBD6420FEF7ABFB00208DF80000CE
:104620005B4A1268917C5A4A526810786B460122A4
:10463000FDF7A9FB10B14FF0FF30EAE7544A1268CA
:10464000917D534A526810786B460622FDF7F5FAC1
:1046500010B14FF0FF30DCE79DF80500C007400FB8
:104660009DF8031001F0010140EA41009DF801109E
:1046700001F0010140EA010494B1012C03D10121B0
:104680004348C17431E0022C03D100214048C17479
:104690002BE021463FA0FBF7E3FD4FF0FF30B8E7EA
:1046A0003B4A1268D1783A4A526810786B46012228
:1046B000FDF7C3FA10B14FF0FF30AAE79DF80000F4
:1046C00000F00F042CB93D48FBF7CAFD4FF0FF3056
:1046D0009FE7042C06D13AA0FBF7C2FD01212C482C
:1046E000C17402E000212A48C174FF212848817268
:1046F000FF2027490872FF2125484172C1724FF6F9
:10470000FF71C181FF21017481740121017380F85F
:104710002210002180F823104175017516300160C8
:1047200041608160163880F8241080F82510C1841B
:104730004FF4FA6000F062FC10B14FF0FF3068E710
:10474000022000F02BFB10B14FF0FF3061E72A2070
:1047500000F0CEFC10B14FF0FF305AE7322000F0ED
:1047600009FD10B14FF0FF3053E70020FFF7CCFCFC
:1047700010B14FF0FF304CE7002000F051FB10B1BA
:104780004FF0FF3045E7002000F042FD002040E7F9
:1047900038000020556E737570706F7274656420F8
:1047A000736F6674776172652070726F647563747D
:1047B000207265762025642E0A00000028900008EB
:1047C00048616C662073656E736974697669747983
:1047D000207061727420666F756E642E0A0000008E
:1047E0002DE9F04385B005460E4690469946294886
:1047F00090F8250020B14FF0FF3005B0BDE8F08300
:1048000016B94FF0FF30F8E7002423E0281B1028EA
:1048100001DD102000E0281B87B2321939462046FE
:1048200000F05EFD10B14FF0FF30E6E701AA394617
:10483000204600F001F910B14FF0FF30DDE73019EC
:104840003A4601A9FBF72CFE10B16FF00100D4E746
:10485000E01984B2AC42D9DB4FEA28208DF8000081
:1048600008F0FF008DF801000A4A1268917E094A9B
:10487000526810786B460222FDF785FA10B14FF0AE
:10488000FF30BAE70121034880F82510A0F82690F0
:104890000020B2E73800002038B50446282C02DD9D
:1048A0004FF0FF3038BDDCB9002000F0EBFB0020FA
:1048B0008DF8000007208DF801002E4A1268917CC7
:1048C0002C4A526810786B460222FDF75CFA10B150
:1048D0004FF0FF30E6E70021264801750020E1E7B0
:1048E000012000F0CFFB20208DF80000012C06D124
:1048F00000208DF80100052000F0FAFB17E0052CE0
:1049000006DC01208DF80100052000F0F1FB0EE02F
:10491000142C06DC02208DF801000A2000F0E8FBD0
:1049200005E003208DF80100142000F0E1FB9DF864
:104930000100072101EB8010C0B28DF801000D4A83
:104940001268917C0B4A526810786B460222FDF780
:104950001AFA10B14FF0FF30A4E708210548817220
:1049600000210173012101750020FFF7CDFB00201C
:1049700098E7000038000020F8B504460F461646B8
:104980002C4890F8240010B94FF0FF30F8BD2948AA
:10499000807A10B94FF0FF30F8E7264A1268917A12
:1049A000244A526810786B460222FDF746F910B18E
:1049B0004FF0FF30EAE79DF801009DF8001040EA53
:1049C0000125A54203DA00203070401EDEE71948B9
:1049D00040684088B5EB600F17DD164A1268517CBD
:1049E000144A526810786B460122FDF726F910B17F
:1049F0004FF0FF30CAE79DF8000000F0100020B132
:104A000000F05AF86FF00100C0E7E2B2094B1B68F2
:104A1000D97A084B5B6818783B46FDF70EF910B160
:104A20004FF0FF30B2E795FBF4F0401E30700020ED
:104A3000ACE7000038000020F8B504460D461646E5
:104A400016B94FF0FF30F8BD1A48807A10B94FF010
:104A5000FF30F8E720128DF80000E0B28DF8010079
:104A60009DF801002844134949684989884202DDBC
:104A70004FF0FF30E7E70F4A1268117E0D4A526887
:104A800010786B460222FDF77EF910B14FF0FF302F
:104A9000D9E7EAB2074B1B68597D064B5B6818786B
:104AA0003346FDF7CAF810B14FF0FF30CBE70020D6
:104AB000C9E700003800002008B57048807A10B9B6
:104AC0004FF0FF3008BD002000906C4A1268D17B87
:104AD0006A4A526810786B460122FDF754F910B10A
:104AE0004FF0FF30EEE7654A12685179634A526829
:104AF00010786B460122FDF746F910B14FF0FF30F8
:104B0000E0E75E4A126811795C4A526810786B4699
:104B10000122FDF738F910B14FF0FF30D2E75748C6
:104B200090F82400002853D00C200090534A1268BB
:104B30001179524A526810786B460122FDF723F929
:104B400010B14FF0FF30BDE73220FEF711F9C02061
:104B500000904A48807A00F0010020B19DF80000E2
:104B600040F020000090454A12681179434A52688B
:104B700010786B460122FDF706F910B14FF0FF30B7
:104B8000A0E73E48407C10B10220009001E00020E8
:104B900000903A4A1268D17B384A526810786B46C6
:104BA0000122FDF7F0F810B14FF0FF308AE7002046
:104BB0000090324A12685179304A526810786B4638
:104BC0000122FDF7E0F8002855D04FF0FF3079E7DB
:104BD00004200090294A12681179284A52681078F6
:104BE0006B460122FDF7CFF810B14FF0FF3069E7B7
:104BF0002248807C20B92148807A00F0010010B959
:104C00004020009001E0602000901C4A1268117959
:104C10001A4A526810786B460122FDF7B4F810B1B9
:104C20004FF0FF304EE73220FEF7A2F81348407CE9
:104C300010B10120009001E0002000900F4A12689E
:104C4000D17B0E4A526810786B460122FDF79BF823
:104C500010B14FF0FF3035E7084A12685179074A22
:104C600052681078054B10330122FDF78CF810B113
:104C70004FF0FF3026E7002024E700003800002036
:104C80002DE9F04F8DB083460F4602200C9042482C
:104C900090F8240020B1002000F068F9012600E01F
:104CA000002603A8FFF722FC05A8FFF7C7FB01A811
:104CB000FFF766FC02A8FFF78BFC374890F80AA0C4
:104CC00004A8FFF70BFC002407E0002239465846F1
:104CD000FEF7DCFE00B902E0641C022CF5DB00BF2D
:104CE000022C01D1002528E0002407E0012206A9BA
:104CF00009A8FEF7CBFE00B902E0641C022CF5DB2C
:104D000000BF022C01D1002517E006A93846FDF7A7
:104D10007FFC00F0FF0809A95846FFF7EFF800F004
:104D2000FF090025B9F1000F01D145F00105B8F1E7
:104D3000000F01D145F0020500BFFF20164908729F
:104D4000FF2115484172C1724FF6FF71C181FF21E9
:104D50008172017401210173BDF80C0000F04EF95D
:104D60009DF8140000F01AF8BDF8040000F0C0F936
:104D7000BDF8080000F0FEF9504600F049FA9DF831
:104D80001000FFF7C1F916B1012000F0EFF8284636
:104D90000DB0BDE8F08F00003800002038B50446A3
:104DA0001E48807A10B94FF0FF3038BD022C06D073
:104DB000042C07D0082C08D0102C0CD108E00020BF
:104DC00000900BE00820009008E01020009005E023
:104DD0001820009002E04FF0FF30E6E700BF0F48D8
:104DE000407A9DF80010B0EBE10F01D10020DCE724
:104DF0000A4A1268D179094A526810786B46012232
:104E0000FCF7C1FF10B14FF0FF30CEE79DF8000076
:104E1000C110024841720020C7E70000380000209E
:104E200038B504465048807CA04201D1002038BDEE
:104E3000002C46D04C4A126811794B4A52681078BF
:104E40006B460122FCF7F9FE10B14FF0FF30EEE7A0
:104E50009DF8000020F020000090434A126811796C
:104E6000414A526810786B460122FCF78CFF10B162
:104E70004FF0FF30DBE70320FDF77AFF02200090C0
:104E8000394890F8220020B19DF8000040F08000E1
:104E90000090354890F8230020B19DF8000040F0C4
:104EA00030000090304A1268117D2F4A5268107805
:104EB0006B460122FCF767FF002851D04FF0FF300E
:104EC000B5E7294A12681179274A526810786B466B
:104ED0000122FCF7B2FE10B14FF0FF30A7E72248E5
:104EE000807A00F0010028B19DF8000040F0200019
:104EF000009004E09DF8000020F0200000901A4A85
:104F000012681179184A526810786B460122FCF732
:104F10003AFF10B14FF0FF3089E70320FDF728FF7B
:104F2000114890F8220010B18020009001E000208C
:104F300000900D4890F8230020B19DF8000040F04B
:104F400030000090084A1268117D074A52681078B4
:104F50006B460122FCF717FF10B14FF0FF3066E7F8
:104F600001488474002062E73800002038B5044608
:104F7000214890F82400A04201D1002038BD24B37C
:104F80001D4890F8250010B94FF0FF30F6E70020DB
:104F900000F030FA0020FFF743FF1749C88C00F0FB
:104FA000E9F8002000901449496808786B4601220E
:104FB0002321FCF7E8FE01210F4880F8241001208E
:104FC00000F018FAFFF778FD13E0002000F012FA65
:104FD0000948007C00900849496808786B4601221E
:104FE0002321FCF7D0FE0021034880F82410FFF7AE
:104FF00063FD0020C2E700003800002038B50446F9
:105000001F48807A10B94FF0FF3038BDFA2C09D014
:10501000B4F5FA7F09D0B4F57A7F09D0B4F5FA6F08
:105020000CD108E0002000900BE00820009008E080
:105030001020009005E01820009002E04FF0FF30B3
:10504000E3E700BF0E48007A9DF80010B0EBE10FD7
:1050500001D10020D9E70A4A12689179084A5268BA
:1050600010786B460122FCF78EFE10B14FF0FF3036
:10507000CBE79DF80000C010014908720020C4E78A
:105080003800002038B50446184890F82300A042A4
:1050900001D1002038BD14B13020009001E0002083
:1050A00000901248807C20B19DF8000040F0020082
:1050B00000900E4890F8220020B19DF8000040F0CA
:1050C00080000090094A1268117D084A52681078E1
:1050D0006B460122FCF757FE10B14FF0FF30D9E7C5
:1050E000024880F823400020D4E700003800002068
:1050F00038B504461E48807A10B94FF0FF3038BDED
:10510000BC2C02DB0120009015E0622C02DB0220A7
:10511000009010E02A2C02DB032000900BE0142CFE
:1051200002DB0420009006E00A2C02DB0520009040
:1051300001E0062000900E48C07A9DF800108842D9
:1051400001D10020DBE70A4A12689178084A5268C8
:1051500010786B460122FCF716FE10B14FF0FF30BD
:10516000CDE79DF800100248C1720020C7E700009B
:105170003800002038B504462448807A10B94FF032
:10518000FF3038BD214890F8240010B14FF0FF30B7
:10519000F7E71E48007D50B134B1282C04DCE0B2A2
:1051A000FFF77AFB0020ECE70020FFF775FB042CEB
:1051B00001DA042404E0B4F57A7F01DD4FF47A7457
:1051C0004FF47A7090FBF4F0401EC0B200900F4A8A
:1051D000126851780D4A526810786B460122FCF72C
:1051E000D2FD10B14FF0FF30CBE79DF80000401C1E
:1051F0004FF47A7191FBF0F081B20448C18101460D
:10520000C9894810FFF774FF0020BAE73800002072
:1052100038B5044604F0700010B10120009005E09C
:1052200014B10020009001E0402000902B4A126849
:10523000917C2A4A526810786B460122FCF7A3FD44
:1052400020B1002125488172481E38BD9DF800001C
:1052500020F04001214801730020009004F040003C
:1052600020B99DF8000040F00400009004F02000F8
:1052700020B99DF8000040F00200009004F01000FA
:1052800020B99DF8000040F00100009004F00800F3
:1052900020B99DF8000040F0380000900F4A1268D5
:1052A000D17C0E4A526810786B460122FCF76BFDE8
:1052B00020B1002109488172481EC6E724B1082C9C
:1052C00002D00020FFF7DEFE044884720021017541
:1052D0003220FDF74DFD0020B7E700003800002028
:1052E000F8B504460D46164616B94FF0FF30F8BD26
:1052F0001A48807A10B94FF0FF30F8E720128DF885
:105300000000E0B28DF801009DF801002844134927
:1053100049684989884202DD4FF0FF30E7E70F4ACC
:105320001268117E0D4A526810786B460222FCF713
:105330002AFD10B14FF0FF30D9E7EAB2074B1B68E6
:10534000597D064B5B6818783346FCF71CFD10B19D
:105350004FF0FF30CBE70020C9E700003800002005
:1053600070B588B002A905A8FFF78AFC0446032C93
:105370003ED101A8FFF7DCF8059801F09BF806463E
:10538000019901F0F7F8054601F058F805900698E4
:1053900001F090F80646019901F0ECF8054601F09D
:1053A0004DF80690079801F085F80646019901F03E
:1053B000E1F8054601F042F8079005A8FEF75CF811
:1053C0006846FFF761F8BDF8001002984843029064
:1053D000BDF80010039848430390BDF800100498EE
:1053E0004843049002A8FDF777FF002008B070BD85
:1053F0000120FBE738B50446214890F82400C0B1ED
:1054000014B10220009001E0002000901C4A1268B4
:10541000D17B1B4A526810786B460122FCF7B3FC23
:1054200010B14FF0FF3038BD9DF8001014484174A2
:1054300023E01348807A10B94FF0FF30F3E724B12E
:105440000F48407C08B10020EDE714B10120009026
:1054500001E0002000900A4A1268D17B084A526895
:1054600010786B460122FCF78EFC10B14FF0FF3034
:10547000D9E79DF80010024841740020D3E70000EE
:10548000380000202DE9F04106460F4600F076FC7A
:10549000041E0D4618BF0120284320F00040C0F133
:1054A0007F6000F1E040C00F0ED0301C18BF01201B
:1054B000384320F00040C0F17F6000F1E040C00FB1
:1054C00004BF0120FBF7A0F820462946BDE8F08183
:1054D00010B586B00446012144F20400FCF7CAFC72
:1054E0004FF40070ADF8140003208DF8160018205A
:1054F0008DF8170005A91C48FBF7FDFB4FF48060F1
:10550000ADF8140004208DF8170005A91648FBF724
:10551000F2FB25208DF8000003208DF801008DF8A6
:10552000020001208DF803006846FCF75FFC01943F
:105530000020ADF80800ADF80A00ADF80C00ADF899
:1055400010000C20ADF80E0001A90848FCF766FF1A
:10555000012240F225510548FCF73AFF012103489A
:10556000FCF700FF06B010BD000801400038014004
:1055700070B588B004460D4613461C2B01DD08B0FB
:1055800070BD0021D81C0DF8001088208DF8000097
:105590008DF801408DF80230002205E0A95CD01C96
:1055A0000DF80010501CC2B29A42F7DB00220BE04B
:1055B000D81C1DF800001DF802100844C1B2D81C08
:1055C0000DF80010501CC2B2D81C8242F0DB002241
:1055D00005E01DF8020000F067F8501CC2B2181D6B
:1055E0008242F6DB00BFCAE72DE9F04F87B00446E0
:1055F0000D4616461F46DDE911ABDDF840904FF031
:10560000000806E000200DF8080008F1010000F095
:10561000FF08B8F11C0FF5DB200A8DF80000E0B29E
:105620008DF80100280A8DF80200E8B28DF8030019
:10563000300A8DF80400F0B28DF80500380A8DF8B4
:105640000600F8B28DF807004FEA19208DF808001F
:1056500009F0FF008DF809004FEA1A208DF80A00C2
:105660000AF0FF008DF80B004FEA1B208DF81200A6
:105670000BF0FF008DF813001398000A8DF814004A
:105680001398C0B28DF815001498000A8DF8160012
:105690001498C0B28DF817001C226946AF20FFF79E
:1056A00067FF07B0BDE8F08F00BF0549098801F02A
:1056B00040010029F9D00249091D08807047000007
:1056C0000038014021F00042A2F16052B2F5801F83
:1056D00001F0004328BFD2F17F6C0BD95FEA001CB8
:1056E00043EAC20242EB507018BF704728BF20F057
:1056F00001007047B2F5801FBCBF184670474FEAE3
:10570000410C1CF5001F02D2084600F0FABF70B52C
:1057100000F0D4FA00000089FFF7F6BF4FF0004018
:10572000A0F580007047000010B591EA030F48BF54
:1057300083F0004300F11084841A71EB030C05D24E
:10574000121943EB0C03001B61EB0C01DFF824E1A1
:105750004FEA1154A4EB135C1EEA430F18BF9EEAF4
:10576000445F73D023EA0E03DCF1200E21EA0451DA
:1057700043F4801332D322FA0CFE10EB0E0023FA0E
:105780000CFE41EB0E01CCF1200E03FA0EFE10EBE5
:105790000E0051F10001B1F5801FCCF1200E32D284
:1057A00001EB045112FA0EF2BDE8104058BF7047E9
:1057B000401C38BF5FEA420218BF7047002814BF80
:1057C00020F0010041F100014FEA410313F5001FF1
:1057D00038BF7047A1F1C04100F0BEBA012A43EBC7
:1057E0000302ACF1200CDCF11F0E32BF4FF0000EB3
:1057F00023FA0CF310EB030041EB0451B4EB115FFF
:10580000D0D0A1EB045101F5801149085FEA3000C6
:1058100001EB04510ED350F1000038BF12FA0EFE16
:1058200008D1BDE81040C9E7401C38BF5FEA42021A
:10583000CAD1C3E7BDE810404FEA410313F5001F8A
:1058400038BF7047A1F1C04100F086BA9EEA445FBC
:1058500008D011EA5E0FBDE8104004BF01F000411E
:1058600000207047BDE8104070B500F027FA00BF77
:1058700064FBBE3E0000E0FF02494FF0000000F074
:10588000ECBF00BF0000F87F2DE9C04130B4DFF865
:10589000A0C23CEA111418BF3CEA131400F0EC80DB
:1058A00081EA03051CEA111444EAD57418BF1CEA06
:1058B000131500F0C780A4EB05044FF0004545EA3E
:1058C000C12145EAC32341EA505143EA525304F14E
:1058D0007F74994204F500344FEAC0204FEAC22297
:1058E00008BF904200F09C804FEA13650FF240160B
:1058F000765D4FEA134506FB05F7C7F1807706FB97
:1059000007F74FEAD737A7FB03687642C8F5803818
:10591000A7FB06CE38BFA8F1010807FB08E64FF049
:10592000000EA6FB028CE6FB03CEDCF1000CCEF1F0
:10593000004E38BFAEF1010EA6FB0C584FF0000729
:105940004FF00005E6FB0E87A1FB08C6A0FB07CEC3
:1059500016EB0E0645F10005E1FB076515F1E04E7B
:105960007EBFA4F580345FEA46066D4116F18007DC
:1059700045F100054FEA17274FEA066647EA056733
:10598000A6F1DE46B6F1805F4FEA15251FD93846ED
:1059900024F0010C05EBC471BCF1FE6F01EB0C119E
:1059A00002D8F0BCBDE8008124425CBF01F5801E36
:1059B0009EEAC47F02D4F0BCBDE80081244238D402
:1059C000F0BCA1F1C041BDE8004100F0C5B94FEA0B
:1059D000D22242EA43524FEAD323A7FB02864FEA80
:1059E000D02040EA415007FB03661EEA0E0F4FEA43
:1059F000D12105FB026658BFA6EB0056B6EB005658
:105A00004FEA520E4EEAC37E18EB0E0E56EB530EC3
:105A1000BDD518EB02085E417F1C55F10005B6E7C5
:105A20004FF480154FF000074FF000064FF00008CC
:105A3000ADE7F0BC4FF0000001F1C04101F00041C2
:105A4000BDE8008111EA0C1F0CEA131500D00CE030
:105A500013EA0C1F00F025804FF00000F0BC81EA33
:105A6000030101F00041BDE80081F0BCBDE8004148
:105A700081EA030100F070B9F0BCBDE8004170B5E7
:105A800000F01CF9097EFC3E00F007B881EA030132
:105A90004FF0000001F00041704781EA030100F07F
:105AA0005BB9F0BCBDE800414FF0000021497047F0
:105AB000FFFDFBF9F7F5F4F2F0EEEDEBE9E8E6E4D3
:105AC000E3E1E0DEDDDBDAD8D7D5D4D3D1D0CFCD5A
:105AD000CCCBCAC8C7C6C5C4C2C1C0BFBEBDBCBB93
