:020000040800F2
:10000000200B0020050100086318000827110008D4
:100010005F180008190C0008D32000080000000039
:10002000000000000000000000000000011A0008AD
:10003000F10C000800000000E9180008251C000869
:100040001F0100081F0100081F0100081F01000810
:100050001F0100081F0100081F0100081F01000800
:100060001F0100081F0100081F0100081F010008F0
:100070001F0100081F0100081F0100081F010008E0
:100080001F0100081F0100081F0100081F010008D0
:100090001F0100081F0100081F0100081F010008C0
:1000A0001F0100081F0100081F0100081F010008B0
:1000B0001F0100081F0100081F0100081F010008A0
:1000C0001F0100081F0100081F0100081F01000890
:1000D0001F010008591D0008A11D0008ED1D0008A2
:1000E0001F0100081F0100081F010008DFF810D0E1
:1000F00000F0C0FC004800474D440008AFF300800A
:10010000200B00200648804706480047FEE7FEE730
:10011000FEE7FEE7FEE7FEE7FEE7FEE7FEE7FEE7B7
:10012000291C0008ED0000082DE9F0410024061B01
:10013000254671F1000605DA01240027D0EB0700FF
:1001400067EB0101161E73F1000605DA0027D2EBFA
:100150000702012567EB030300F07EFB86460E468F
:1001600017469C46AC4204D00025D0EB050E65EB4B
:10017000010624B10020D2EB000760EB030C7046AF
:1001800031463A466346BDE8F08140EA01039B07E9
:1001900003D009E008C9121F08C0042AFAD203E0FC
:1001A00011F8013B00F8013B521EF9D27047D2B260
:1001B00001E000F8012B491EFBD270470022F6E750
:1001C00010B513460A4604461946FFF7F0FF2046CD
:1001D00010BD30B505462A460B4612F8010B13F840
:1001E000014B08B1A042F8D01CB1002802D06D1C10
:1001F000F1E7284630BD421C10F8011B0029FBD155
:10020000801A704730B504460020034600E05B1CAE
:10021000934203D2E05CCD5C401BF8D030BDF0B41B
:1002200080EA0102D40F4200B2EB410F02D2024633
:10023000084611464A0042D0C30DDDB2C1F3C75291
:10024000AD1A202D35DAC1F3160141F4000204B1D4
:100250005242C5F1200602FA06F12A411044B3EBDE
:10026000D05F23D0C4B1012DA0EBC35009DCF0BC9A
:100270004FF0004202EAC352DBB200F5000000F08A
:1002800056BB400000F1807000EBC350A0F18070BD
:1002900040EAD170490009E0490841EAC071A0EB89
:1002A000C35000F50000400800EBC350F0BC00F064
:1002B00035BB6142012202EB4101001BF6E7F0BCB5
:1002C000704781F00041AAE780F00040A7E780EA8C
:1002D000010210B502F00043400022D04A001FD0B6
:1002E000010E01EB1261C0F35600C2F3560240F456
:1002F000000042F40002A0FB022000047F39140435
:1003000000D0401C50EA124001D44000491EC2B245
:100310000C0604EBD010401C4008802A02D003E0F9
:10032000002010BD20F00100002900DA0020184351
:1003300010BD30B480EA010202F0004530F0004206
:1003400021F0004013D090B1C30DD40DC2F31601BB
:10035000C0F31600E41A41F4000140F400027D34B9
:10036000914201D3641C00E04900002C02DA30BC49
:10037000002070474FF400000023914201D3891AF6
:10038000034340084FEA4101F7D151B1914202D1F4
:100390004FF0004105E002D24FF0010101E06FF0A3
:1003A000010103EBC450284430BC00F0B7BA2DE97A
:1003B000FE4F804681EA0300C00F0C46009021F0FA
:1003C000004123F00045B8EB0200A94105D24046A8
:1003D000214690461C460B46024623F0004010433F
:1003E00047D0270DC7F30A00C3F30A510290401A01
:1003F000019040286BDAC3F3130040F4801B00988F
:10040000924620B10023D2EB030A63EB0B0B019859
:100410005946C0F14002504600F04FFA06460D46DC
:1004200050465946019A00F067FA10EB0800614106
:10043000002487EA115284EAE7731A4340D0009AF5
:1004400062B3019A012A4FEA075215DC001B61EBE7
:1004500002014FF0004202EA0752CDE90042001CBF
:1004600041F5801132462B4600F09EFA03B0BDE8FC
:10047000F08F40462146F9E7001B61EB0201001CAA
:1004800041F5801300185B412018A2F5001747EBD7
:10049000030140EAD570B6196D4111E06D084FEACD
:1004A000360645EAC0754FEA0752001B61EB0201B0
:1004B000001C41F5801149084FEA300000195141F4
:1004C00032462B4603B0BDE8F04F00F05EBA00980C
:1004D000012240000023D0EB020263EBE07300989E
:1004E00021464FEAE074B8EB000061EB0401E9E754
:1004F00083F000435BE781F0004158E72DE9FE4FB0
:1005000081EA030404F0004421F0004100944FF01C
:10051000000B23F0004350EA01045ED052EA0304CA
:100520005BD0C3F30A54C1F30A552C44A4F2F3344C
:100530000194A0FB0254C1F3130141F48011C3F3F1
:10054000130343F4801301FB024400FB034E840AAF
:10055000970A44EA815447EA8357A4FB0768029547
:100560008D0A05FB07854FEA932C04FB0C542705E5
:10057000029D4FEA065847EA1637B5EB08056EEBC1
:10058000070C870E920E47EA811742EA8312A7FBF7
:100590000201B6EB0B0164EB00042B0D43EA0C33B4
:1005A0005E1844EB1C50DA465146E7FB0201C5F3E6
:1005B00013044FEA0B3343EA14534FEA0432019C0D
:1005C00043EA0603A4F10C040294009CCDE900B4B4
:1005D00000F0EAF903B0BDE8F08F00200146F9E72A
:1005E0002DE9F04D81EA030404F0004B21F00045B1
:1005F00014464FF0000A23F0004150EA050220D0D3
:1006000054EA01021DD0C5F30A570246C5F313038D
:10061000C1F31300C1F30A5640F4801543F480136C
:10062000A7EB0608101BD64608F2FD3873EB050051
:1006300002D308F1010801E092185B41B8F1000F04
:1006400003DA00200146BDE8F08D00204FF4801150
:10065000064684460EE0171B73EB050705D3121BF5
:1006600063EB050306434CEA010C49084FEA3000EE
:1006700092185B4150EA0107EDD152EA030012D013
:1006800082EA040083EA0501084305D0101BAB4150
:1006900006D20122002306E000224FF0004302E0D0
:1006A0006FF0010253101AEB06004CEB085110EBEF
:1006B0000A0041EB0B01BDE8F04D00F066B9C10F37
:1006C00080EAE0700844CA079623002100F02FB9A1
:1006D00096230022114600F02AB90EB5C10F80EA18
:1006E000E0700844CA07002140F233438DE80E0051
:1006F0000A460B4600F058F903B000BD0EB540F2B3
:10070000334102910021CDE900110A460B4600F069
:100710004BF903B000BD00F0004220F00040C10DD5
:10072000C0F3160040F400007F2901DA0020704772
:10073000962903DCC1F19601C84001E09639884052
:10074000002AF4D04042704720F00040C10DC0F3B1
:10075000160040F400007F2901DA00207047962936
:1007600003DCC1F19601C840704796398840704754
:10077000C1F30A5210B5C1F3130140F2FF3341F443
:1007800080119A4201DA002010BD40F233439A42B0
:10079000A2F2334203DC524200F09EF810BD9040BA
:1007A00010BD00F0004230F000400AD0C10D01F54C
:1007B0006071C0F3160042EA0151C20840071143BC
:1007C000704700200146704730B5041E71F10004E7
:1007D00004DB4FF00044404264EB0101141E73F14E
:1007E000000405DB1C464FF00043524263EB040358
:1007F0008B4208BF824230BD01F0004330B421F08B
:10080000004150EA010206D00A0DA2F56072C1F360
:100810001301002A02DC30BC00207047440F44EA78
:10082000C104C100E01830BC00EBC25000F076B843
:10083000002801DBC0F10040002901DBC1F10041CB
:1008400081427047002801DBC0F10040002901DB34
:10085000C1F10041884270472DE9F05F0546002054
:1008600092469B4688460646814640241BE0284621
:1008700041464746224600F02FF853465A46C01AD2
:10088000914110D311461846224600F016F82D1A51
:1008900067EB01084F4622460120002100F00DF8C9
:1008A00017EB00094E41201EA4F10104DFDC48468D
:1008B00031462A464346BDE8F09F202A04DB203A11
:1008C00000FA02F1002070479140C2F1200320FAA3
:1008D00003F3194390407047202A04DB203A21FAA1
:1008E00002F00021704721FA02F3D040C2F1200249
:1008F0009140084319467047202A06DBCB17203A5F
:1009000041FA02F043EAE07306E041FA02F3D04014
:10091000C2F1200291400843194670470029A8BF40
:100920007047401C490008BF20F00100704710B418
:10093000B0FA80FC00FA0CF050EA010404BF10BCCD
:10094000704749B1CCF1200421FA04F411FA0CF1FA
:1009500018BF012121430843A3EB0C01CB1D4FEA33
:1009600000614FEA102042BF002010BC704700EB2E
:10097000C35010440029A4BF10BC7047401C49005C
:1009800008BF20F0010010BC704710B5141E73F1B1
:10099000000408DA401C41F1000192185B411A433F
:1009A00001D120F0010010BD2DE9F04D92469B468B
:1009B00011B1B1FA81F202E0B0FA80F22032904631
:1009C000FFF77BFF04460F4640EA0A0041EA0B01AD
:1009D00053465A46084313D0114653EA010019D032
:1009E000C8F140025046FFF777FF05460E465046D5
:1009F00059464246FFF761FF084305D0012004E055
:100A000020463946BDE8F08D0020054346EAE076F1
:100A10002C4337430A986305E40AA0EB0800002240
:100A2000FD0A44EA47540A3002D500200146E9E7AE
:100A3000010510196941DDE9084500196941BDE862
:100A4000F04DA2E770B521F0004303430CD0C1F391
:100A50000A550024D5EB040564EB0403D617AD1A40
:100A6000B34102DB0020014670BD201841EB02516A
:100A700070BD0000064C074D06E0E06840F0010341
:100A800094E8070098471034AC42F6D3FFF732FBE6
:100A9000506B0008706B00082DE9F04D00231A46DA
:100AA0001B1A8A4103DB00200146BDE8F08DC1F32B
:100AB0000A52C1F3130141F480154FF0000BD10726
:100AC00002D100186D41521E0027044640F2FF116A
:100AD000384601EB620A3E468046024600204FF44B
:100AE0008011FFF7F9FEC2197141BB1846EB0100F6
:100AF000B4EB030C75EB000C04D3E41A65EB0005B2
:100B000017460E46241908F101006D41804634282D
:100B1000E3DDF91946EB0600091BA84103D24FF0AB
:100B2000FF32134601E0002213461BEB070046EBA1
:100B30000A51BDE8F04DFFF728BF70B58C1810F8CA
:100B4000015B15F0070301D110F8013B2A1106D112
:100B500010F8012B03E010F8016B01F8016B5B1E2C
:100B6000F9D12B0705D40023521E0DD401F8013B07
:100B7000FAE710F8013BCB1A921C03E013F8015B73
:100B800001F8015B521EF9D5A142D8D3002070BDF7
:100B900010B5044603F0A2FB462003F075FB03F0FA
:100BA000C5FB012800D110BD204603F06DFB03F00A
:100BB000BDFB012801D10220F5E703F0A7FB0020CF
:100BC000F1E710B500F0B2FA00F004F81020FFF7DA
:100BD000DFFF10BD10B50120FFF7DAFF10BD10B523
:100BE000002403F07BFB472003F04EFB03F09EFB49
:100BF000012801D1002010BD03F024FB044603F0BE
:100C0000EDFA03F01FFB00EB042084B203F006FBB7
:100C100003F07CFB2046EEE700BFFEE710B52D4851
:100C20000078012854D12C48B0F90000002805DADA
:100C300029480088404200B22749088027492848AF
:100C40000068FFF744FB0446FFF765FD00B2224948
:100C500008800846B0F90000002804DA0846008839
:100C6000404200B208801C48B0F900000A2190FB05
:100C7000F1F01C49086019491B480068FFF727FB81
:100C80000446FFF748FD00B2134908800846B0F952
:100C90000000002804DA08460088404200B20880BC
:100CA0000E4912480068FFF712FB0446FFF733FDB8
:100CB00000B2094908800846B0F90000002804DAAB
:100CC00008460088404200B20880002001490870B0
:100CD00010BD00001A000020180000200000204174
:100CE00000000020AC0500200400002008000020C7
:100CF0007047000010B580210348FFF75FFA00201D
:100D00000249088010BD00009C0600206E060020ED
:100D100008B50121102000F0F9FD10208DF8030026
:100D20008002ADF8000003208DF8020069463F48BC
:100D300000F05CF900224FF480413C4800F0EEF9ED
:100D4000FA2002F0E3F801229103384800F0E6F9B6
:100D50004FF4FA7002F0DAF810208DF80300C002A8
:100D6000ADF8000003208DF8020069462F4800F01E
:100D70003DF900224FF400512C4800F0CFF9FA2041
:100D800002F0C4F801225103284800F0C7F94FF4DB
:100D9000FA7002F0BBF8FFF7ADFF25A125A000F027
:100DA000C3F84FF47A7002F0B1F823A123A000F049
:100DB000BBF84FF47A7002F0A9F81DA122A000F050
:100DC000B3F84FF47A7002F0A1F819A122A000F054
:100DD000ABF84FF47A7002F099F817A122A000F056
:100DE000A3F84FF47A7002F091F813A126A000F056
:100DF0009BF84FF47A7002F089F80FA130A000F050
:100E000093F840F2DC5002F081F80BA136A000F01C
:100E10008BF84FF47A7002F079F807A139A000F04E
:100E200083F84FF47A7002F071F808BD00100140A9
:100E30004F4B000041540D0A0000000041542B525A
:100E400053540D0A0000000041542B43574D4F44AA
:100E5000453D310D0A00000041542B43574448439F
:100E6000503D312C310D0A0041542B43574A41501B
:100E70003D2253535353222C2231323334353637EB
:100E8000383930220D0A000041542B4D515454552D
:100E90005345524346473D302C312C224D5154543A
:100EA0004944222C225553454E4D4145222C223196
:100EB0003233222C302C302C22220D0A000000006C
:100EC00041542B4D515454434F4E4E3D302C2262D1
:100ED000726F6B65722E656D71782E696F222C3181
:100EE0003838332C300D0A0041542B4D5154545393
:100EF00055423D302C225A4446535542222C310D46
:100F00000A00000041542B4D5154545055423D307D
:100F10002C225A4446505542222C224F4E222C312C
:100F20002C300D0A000000002DE9F04105460E4668
:100F3000C8272846FFF75FF984B222462946194898
:100F400001F020F9C82001F0E1FF23E000F034F8BF
:100F5000E0B915A11648FFF73CF968B1154800F053
:100F600050FD002404E04FF4E16001F0CFFF641C69
:100F7000032CF8DDFFF7BEFE31460D48FFF729F9D7
:100F800020B1FFF7B7FE0120BDE8F0810A2001F093
:100F9000BDFF00BF381EA7F10101CFB2D6D100BFFF
:100FA000F2E7000000440040766F696365000000CE
:100FB0009C0600200A0600200A48008808B9012083
:100FC00070470848008808490988884203D10020F2
:100FD00004490880F4E70348008803490880012099
:100FE000EEE700006E060020700600202DE9F041BB
:100FF000024600250026002000230024002791F847
:1010000003C00CF00F0591F803C00CF0100CBCF1FC
:10101000000F03D091F802C04CEA050591F800C01A
:10102000BCF1000F31D0146800202BE04FF0010C10
:101030000CFA00F3B1F800C00CEA03069E4220D17E
:1010400083004FF00F0C0CFA03F7BC4305FA03FCC6
:101050004CEA040491F803C0BCF1280F06D14FF00C
:10106000010C0CFA00FCC2F814C00AE091F803C0AD
:10107000BCF1480F05D14FF0010C0CFA00FCC2F88E
:1010800010C0401C0828D1D31460B1F800C0BCF1D6
:10109000FF0F34DD546800202EE000F1080C4FF003
:1010A000010808FA0CF3B1F800C00CEA03069E42EE
:1010B00021D183004FF00F0C0CFA03F7BC4305FA63
:1010C00003FC4CEA040491F803C0BCF1280F05D1DD
:1010D00000F1080C08FA0CF8C2F8148091F803C06B
:1010E000BCF1480F07D100F1080C4FF0010808FAD5
:1010F0000CF8C2F81080401C0828CED35460BDE81C
:10110000F0810246002093680B400BB1012000E003
:101110000020704741617047016170470AB1016169
:1011200000E04161704700BFFEE7000008B5012103
:10113000042000F0EBFBC020ADF8000003208DF888
:10114000020014208DF8030069460348FFF74EFFA4
:1011500003F0DCF808BD00000008014008B50121DB
:10116000042000F0D3FB10208DF8030003208DF83D
:1011700002004FF49870ADF8000069460848FFF788
:1011800035FF10210648FFF7C5FF20210448FFF76F
:10119000C1FF4FF480710248FFF7BEFF08BD000099
:1011A0000008014070B5FFF71AFD0646FFF790FAF8
:1011B00005460449FFF7BDF804464FF07E51FFF79E
:1011C00086F870BDCDCC8C3F2DE9FC4104460D4620
:1011D00016466B4606223B21682000F06AFA074655
:1011E000BFB99DF801009DF8001040EA012000B24F
:1011F00020809DF803009DF8021040EA012000B213
:1012000028809DF805009DF8041040EA012000B2F6
:1012100030803846BDE8FC812DE9FC4104460D468E
:1012200016466B4606224321682000F042FA074624
:10123000BFB99DF801009DF8001040EA012000B2FE
:1012400020809DF803009DF8021040EA012000B2C2
:1012500028809DF805009DF8041040EA012000B2A6
:1012600030803846BDE8FC812DE9F84F6B460222FC
:101270004121682000F01DFA9DF801009DF8001042
:1012800040EA01200FFA80FA5046FFF726FA80461E
:1012900000220B4BFFF7A4F906460A4A0A4BFFF758
:1012A00086F80446FFF7A8FA834608495846FFF730
:1012B0000EF80446FFF72FFA00B2BDE8F88F0000E1
:1012C00000407540A4703D0AD74342400000C84228
:1012D00010B500200E4908600E48006820F07040EC
:1012E0000C4908600846006840F040500860002043
:1012F0000949C1F89C0100F011F801200449086077
:1013000000F00CF800200449C1F8980110BD00005D
:1013100098812142000C01400080214210B502203A
:1013200001F01AFE10BD000008B50121082000F0F0
:10133000EDFAC020ADF8000010208DF80300032066
:101340008DF8020069460448FFF750FEC0210248AC
:10135000FFF7E2FE08BD0000000C014010B50020C0
:101360000E4908600E48006820F070400C49086083
:101370000846006840F04050086001200949C1F863
:101380009C01FFF7CBFF012004490860FFF7C6FF6F
:1013900000200449C1F8980110BD00009881214245
:1013A000000C01400080214270B50546002416481B
:1013B000006820F07040144908600846006840F05A
:1013C00000400860002614E0002010490860FFF784
:1013D000A5FF01200E49C1F898016006040E0B48D4
:1013E0007C38006808B1601CC4B2FFF797FF701C1E
:1013F000C6B2082EE8DB15B9FFF7B0FF01E0FFF732
:1014000067FF204670BD0000000C0140988121421A
:101410000080214270B504461248006820F07040F8
:10142000104908600846006840F0405008600020FD
:101430000D490860002512E0E0090B49091D08600C
:101440006006040E01200949C1F89801FFF766FF04
:10145000002005490860FFF761FF681CC5B2082D30
:10146000EADB70BD000C01409881214200802142DE
:1014700010B50E48006820F070400C49086008461E
:10148000006840F04050086001200949086009499F
:10149000C1F89801FFF742FF002005490860FFF7F7
:1014A0003DFF00200349C1F8980110BD000C014028
:1014B0009C8121420080214210B50E48006820F036
:1014C00070400C4908600846006840F040500860D1
:1014D0000020094908600949C1F89C01FFF71EFF77
:1014E0000120054908600549C1F89C01FFF716FF76
:1014F00010BD0000000C0140988121420080214273
:1015000010B500241448006820F0704012490860AB
:101510000846006840F00040086001200F4908605C
:10152000FFF7FCFE01200E49C1F89801FFF7F6FE17
:1015300007E0601CC4B2FA2C03DDFFF7BDFF0120F9
:1015400010BD0648803800680028F2D10349091F01
:10155000086000BFF4E70000000C01409C812142BC
:101560000080214210B5FFF7DFFE01F05DFC802115
:101570006B2000F022F9642001F0C8FC00216B20F0
:1015800000F01BF9032000F0D6F8002000F0CBF8A3
:10159000322000F0F5F80021382000F00EF900218B
:1015A0006A2000F00AF90021232000F006F98021CA
:1015B000372000F002F9752000F05EF80446682C30
:1015C0000BD101216B2000F0F8F800216C2000F015
:1015D000F4F8322000F0D4F801E0012010BD002022
:1015E000FCE7000010B5002426E0184A1849194805
:1015F00002F0E6FFD0B9FFF737FE17490880174A17
:1016000017491848FFF7E0FD174A18491848FFF72F
:1016100003FE18484078401C164948700846407838
:10162000042803D10120087000204870641CB4F520
:10163000FA7F01DD002410BD0E4800780028D4D0C8
:10164000B4F5FA7FD1DB00BFF5E700000800002009
:1016500004000020000000201800002010000020DE
:101660000E0000200C0000201600002014000020B6
:10167000120000201A00002070B50446FFF7F8FEA3
:10168000D020FFF7C7FEFFF73BFF2046FFF7C2FE63
:10169000FFF736FFFFF7ECFED120FFF7BBFEFFF7A9
:1016A0002FFF0020FFF780FE0546FFF705FF2846C5
:1016B00070BD2DE9F04106460F4614461D46FFF762
:1016C000D7FE002141EA4601C8B2FFF7A3FEFFF7AB
:1016D00017FF20B1FFF7F0FE0120BDE8F08138468A
:1016E000FFF798FEFFF70CFFFFF7C2FE012101EBA9
:1016F0004601C8B2FFF78EFEFFF702FF0DE0012C96
:1017000004D10020FFF750FE287003E00120FFF70E
:101710004BFE2870601EC4B26D1C002CEFD1FFF789
:10172000CBFE0020D9E710B50446E006010E1C20D0
:1017300000F043F810BD10B50446E006010E1B2072
:1017400000F03BF810BD70B504460025BC2C01DB51
:10175000012510E0622C01DB02250CE02A2C01DBC4
:10176000032508E0142C01DB042504E00A2C01DB2E
:10177000052500E0062529461A2000F01EF870BD58
:1017800070B50446B4F57A7F01DD4FF47A74042C09
:1017900000DA04244FF47A7090FBF4F0401EC5B2D6
:1017A0002946192000F009F80546264604EBD671B3
:1017B000C1F34F00FFF7C7FF70BD70B505460C467B
:1017C000FFF756FED020FFF725FEFFF799FE18B170
:1017D000FFF772FE012070BD2846FFF71BFEFFF7E2
:1017E0008FFE2046FFF716FEFFF78AFE18B1FFF7BF
:1017F00063FE0120EFE7FFF75FFE0020EBE72DE936
:10180000F04105460E4617469846FFF731FE002187
:1018100041EA4501C8B2FFF7FDFDFFF771FE20B1B7
:10182000FFF74AFE0120BDE8F0813046FFF7F2FDE8
:10183000FFF766FE00240CE018F80400FFF7EAFD4D
:10184000FFF75EFE18B1FFF737FE0120EBE7601CE3
:10185000C4B2BC42F0DBFFF72FFE0020E3E700BF7D
:10186000FEE7704770B5002100230F22C47804B34F
:10187000154C246804F4E064C4F5E064210AC1F165
:101880000403CA40447804FA03F1847814402143E5
:1018900009010E4C0678A155047804F01F050124B7
:1018A000AC4005786D11AD0005F1E025C5F80041AB
:1018B00009E0047804F01F050124AC40044D0678CB
:1018C000761145F8264070BD0CED00E000E400E024
:1018D00080E100E002490143024A116070470000C4
:1018E0000000FA050CED00E07047000029B1064A3F
:1018F000D2690243044BDA6104E0034AD2698243AD
:10190000014BDA61704700000010024029B1064A1D
:1019100092690243044B9A6104E0034A926982434C
:10192000014B9A61704700000010024030B5002161
:101930000022002400232D4D6D6805F00C0121B11B
:10194000042905D0082923D105E0294D056022E0AE
:10195000274D05601FE0254D6D6805F47012234D7D
:101960006D6805F48034022505EB92421CB9214DC7
:10197000554305600BE01D4D6D6805F400351DB144
:101980001C4D5543056002E0194D5543056002E0CA
:10199000174D056000BF00BF144D6D6805F0F001E4
:1019A0000909154D6B5C0568DD4045600F4D6D689C
:1019B00005F4E061090A104D6B5C4568DD40856007
:1019C0000A4D6D6805F46051C90A0B4D6B5C4568A2
:1019D000DD40C560054D6D6805F44041890B074D3C
:1019E0006B5CC568B5FBF3F5056130BD00100240C6
:1019F00000127A0000093D007206002082060020D5
:101A00007047F0B58DB00646002700243046FEF73B
:101A1000F2FBC5B2FD208DF8000000208DF801001A
:101A2000E81CC0B28DF8020001208DF803008DF88B
:101A3000040000BF03E01DF804004740641C052CAF
:101A4000F9D3002402E0305D4740641CAC42FAD375
:101A50002A4631460DF10500FEF797FB681D0DF88B
:101A60000070A81DC1B2684600F030FA0DB0F0BD9C
:101A700010B54FF4A060FFF72DFF01F025FA4FF4E9
:101A8000E13004F015F94FF4E13000F025FB4FF49C
:101A9000165000F0B9F9FFF761FBFFF763FDFFF7A0
:101AA00090F804F0A3F80AE00DA0FFF7AAFF4FF4A6
:101AB000E16001F02BFA10210E48FFF72DFB02F038
:101AC00091FE0028F0D110210A48FFF723FB0AA05D
:101AD000FFF797FF00200E490870487010BD000006
:101AE0005B76355D5B6D305D5B74355DC6F4B6AFBE
:101AF000D6D00000000801405B7631305D5B6D3070
:101B00005D5B74355DC6F4B6AFCDEAB3C9000000C5
:101B10001A00002010B500F001F810BD0CB500202F
:101B2000019000903348006840F4803031490860EB
:101B300000BF3048006800F4003000900198401C5D
:101B40000190009818B90198B0F5A06FF1D129481B
:101B5000006800F4003010B10120009001E0002086
:101B600000900098012843D12348006840F01000FD
:101B7000214908600846006820F003000860084614
:101B8000006840F0020008601A484068194948603F
:101B90000846406848600846406840F480604860F5
:101BA0000846406820F47C1048600846406840F4CD
:101BB000E81048600846006840F08070086000BF88
:101BC0000C48006800F000700028F9D0094840680F
:101BD00020F00300074948600846406840F00200D2
:101BE000486000BF0348406800F00C000828F9D1A5
:101BF0000CBD00000010024000200240042808D163
:101C00004FF0E021096941F004014FF0E022116139
:101C100007E04FF0E021096921F004014FF0E022D4
:101C2000116170477047000010B51348006840F01C
:101C300001001149086008464068104908400E49F3
:101C40004860084600680E4908400B49086008468D
:101C5000006820F4802008600846406820F4FE00F8
:101C600048604FF41F008860FFF754FF4FF000609A
:101C70000449086010BD0000001002400000FFF899
:101C8000FFFFF6FE08ED00E021B1028842F00102FC
:101C9000028004E002884FF6FE731A40028070470B
:101CA0001AB183890B43838102E083898B4383814B
:101CB00070470000002202881D4B98420ED01D4B39
:101CC00098420BD0B0F1804F08D01B4B984205D002
:101CD0001A4B984202D01A4B984204D14FF68F7398
:101CE0001A404B881A43174B984207D0164B98421C
:101CF00004D04FF6FF431A40CB881A4302808B88EA
:101D000083850B8803850A4B98420BD0094B984278
:101D100008D00E4B984205D00D4B984202D00D4B87
:101D2000984201D10B7A0386012383827047000019
:101D3000002C014000340140000400400008004035
:101D4000000C004000100040001400400040014022
:101D5000004401400048014010B540F225510E48B2
:101D600000F0F3F8012816D10B4800F0A9F9044659
:101D70000A4908702146084800F0A7F900BF8021F1
:101D8000054800F0D5F80028F9D040F22551024866
:101D900000F0B3F800BF10BD003801400806002075
:101DA00010B540F225510E4800F0CFF8B0B10D4803
:101DB0000088802802D300200A4908800848001DB6
:101DC0000088C1B2074802880088401C054B188073
:101DD000054881542021024800F086F810BD00001B
:101DE000004400406E0600209C06002010B540F222
:101DF0002551044800F0A9F818B1024800F060F934
:101E0000C4B210BD0048004010B586B004460121A0
:101E10000820FFF77BFD01218804FFF767FD4FF4E1
:101E20008060ADF8140003208DF8160018208DF89E
:101E3000170005A91C48FFF7D9F84FF40060ADF86A
:101E4000140004208DF8170005A91748FFF7CEF8F5
:101E500027208DF8000003208DF801008DF8020086
:101E600001208DF803006846FFF7FCFC0194002078
:101E7000ADF80800ADF80A00ADF80C00ADF81000A0
:101E80000C20ADF80E0001A9084800F0ADF80122C1
:101E900040F22551054800F082F80121034800F086
:101EA0003BF806B010BD0000000C014000480040A7
:101EB00000BF0549098801F040010029F9D0024915
:101EC000091D0880704700000048004030B50246F8
:101ED0000B46002405E012F8010BFFF7E9FF601C38
:101EE000C4B29C42F7DB30BD01F40072B2F5007F52
:101EF00000D100BFCA430280704710B50022002302
:101F000040F66A14A14200D100BF0A120124944095
:101F1000A3B2DC43048010BD21B1828942F4005297
:101F2000828104E082894DF6FF731A4082817047F6
:101F300002460020B1F5007F00D100BF13880B409E
:101F40000BB1012000E00020704770B5024600246C
:101F500000230025002040F66A16B14200D100BFE0
:101F6000C1F3421501F01F03012606FA03F3012D08
:101F700002D19689334006E0022D02D1168A334001
:101F800001E0968A33400C12012606FA04F4168802
:101F9000344013B10CB1012000E0002070BDF0B559
:101FA0000346002400260025002040F66A17B942A7
:101FB00000D100BF1846C1F3421401F01F060127EB
:101FC00007FA06F5012C01D10C3004E0022C01D1F6
:101FD000103000E014301AB107682F43076002E0A8
:101FE0000768AF430760F0BD2DE9F04786B00546AE
:101FF0000E460024A24600BFA1460027B08900B1CA
:1020000000BF2F462C8A4CF6FF700440F088044332
:102010002C82AC894EF6F3100440B0883189084315
:10202000718908430443AC81AC8A4FF6FF400440F9
:10203000B0890443AC8201A8FFF778FC1F488742AF
:1020400002D1DDF810A001E0DDF80CA0A88900F4B1
:10205000004040B10AEBCA0000EB0A1031684900A9
:10206000B0FBF1F807E00AEBCA0000EB0A10316898
:102070008900B0FBF1F86420B8FBF0F004012009FE
:10208000642101FB1089A88900F4004040B132208E
:1020900000EBC900B0FBF1F000F00700044308E0DA
:1020A000322000EB09106421B0FBF1F000F00F00CA
:1020B00004432C8106B0BDE8F087000000380140E1
:1020C00001468888C0F308007047C1F30802828087
:1020D000704700BFFEE7000010B586B0044601213E
:1020E0000420FFF713FC01214804FFF7FFFB182031
:1020F0008DF817000420ADF8140003208DF81600A9
:1021000005A91E48FEF772FF04208DF8170008206D
:10211000ADF8140003208DF8160005A91748FEF746
:1021200065FF01940020ADF810000C20ADF80E0002
:102130000020ADF80C00ADF80A00ADF8080001A9C8
:102140000F48FFF751FF01210D48FFF7E5FE01227F
:1021500040F225510A48FFF722FF26208DF80000A3
:1021600001208DF8030000208DF801008DF8020099
:102170006846FFF777FB06B010BD0000000801407D
:10218000004400402DE9F04107460C461546002664
:102190000DE014F8011B3846FFF797FF00BF402100
:1021A0003846FFF7C5FE0028F9D0701C86B2AE4253
:1021B000EFDBBDE8F08100000FB4054B10B503A9BB
:1021C000044A029800F09AF810BC5DF814FB000075
:1021D000893B000800060020490050EAC12018BFD2
:1021E00004204A0D18BF40F0010040F2FF72B2EB2C
:1021F000515F08BF40F00200012808BF052070476A
:102200002DE9F0414F1E00EBC7010446D1E9000162
:1022100015461E4637F006020DD02A463346FEF715
:102220006DF97F1E04EBC703D3E90023FEF7BFF867
:1022300037F00602F1D1022F25D0042F13D0062F3C
:1022400018BFBDE8F0812A463346FEF757F9D4E9B6
:102250000A23FEF7ACF82A463346FEF74FF9D4E9D5
:102260000823FEF7A4F82A463346FEF747F9D4E9D7
:102270000623FEF79CF82A463346FEF73FF9D4E9D9
:102280000423FEF794F82A463346FEF737F9D4E9DB
:102290000223FEF78CF82A463346FEF72FF9D4E9DD
:1022A0000023BDE8F041FEF782B80122FEF7CABB69
:1022B000FEF77DB80022134610461146FEF790B98E
:1022C000024A00201107FEF7BDBB000001FDFFFF21
:1022D00002E008C8121F08C1002AFAD170477047EF
:1022E000002001E001C1121F002AFBD1704700004D
:1022F0000149086070470000880600202DE9FF4F63
:102300008DB00F460546002606E025280BD0DDE9F6
:102310000F1290476D1C761C28780028F5D111B05B
:102320003046BDE8F08F0024A246A1460122E949CB
:1023300000E0044315F8013F203B02FA03F0084295
:10234000F7D128782A2810D06FF02F022878A0F132
:102350003001092914D80AEB8A0102EB410144F04B
:10236000020400EB010A6D1CF0E701CF5FEA000AEE
:1023700003D544F40054CAF1000A44F002046D1C71
:1023800028782E2817D115F8010F44F004042A28C4
:102390000ED06FF02F022878A0F1300109290AD859
:1023A00009EB890102EB410100EB01096D1CF2E729
:1023B00057F8049B6D1C28786C280FD006DC4C283D
:1023C00017D068280DD06A2814D104E0742810D0E2
:1023D0007A280FD10DE044F400140AE044F480148C
:1023E00001E044F440146978814202D104F580147C
:1023F0006D1C6D1C28786E281ED00CDC632830D034
:1024000004DC00288BD0582811D19FE0642867D0C5
:1024100069280CD164E073282DD004DC6F2872D0B9
:10242000702804D194E075286ED078286DD0DDE94D
:102430000F129047761C4BE1C4F30250022806D0DD
:10244000032809D0042801CF09D0066040E101CF5C
:10245000F117C0E900613BE101CF068038E1067069
:1024600036E117F8040B8DF8000000208DF801000C
:10247000EB46012003E057F804BB4FF0FF30610743
:102480004FF0000102D40DE008F1010188464945F2
:102490000FDA8045F8DB1BF808100029F4D108E0BA
:1024A00008F1010188468142FADB1BF80810002977
:1024B000F6D1DDE90F23AAEB08008146214600F0A2
:1024C00031F9304400EB080604E0DDE90F121BF897
:1024D000010B9047B8F10108F7D221464846F2E0D7
:1024E0000A21C4F302524FF0000B0891022A04D0D3
:1024F00001CFC117032A09D00AE0FF1D27F0070703
:10250000F7E8020108E02CE01EE01FE000B2C1176E
:10251000042A01D140B2C117021E71F1000206DA8D
:102520000023D0EB030063EB01012D2202E0220522
:1025300004D52B228DF82420012203E0E20701D0EC
:102540002022F7E7904653E00A210BE0102109E032
:1025500010214FF0000B44F004044FF008090891DB
:1025600003E008214FF0000B0891C4F30252022A45
:1025700004D001CF0021032A06D006E0FF1D27F07A
:102580000707F7E8020103E080B2042A00D1C0B2D5
:102590004FF0000822072BD52A78702A07D0DDF8E3
:1025A00020C08CF0100C5CEA0B0C05D00EE0402231
:1025B0008DF82420012208E050EA010306D03023E0
:1025C0008DF824308DF8252002229046089B83F058
:1025D000080353EA0B030BD150EA010201D1620751
:1025E00006D530228DF824204FF00108A9F1010909
:1025F0002A78582A04D038A20B9208AA0A920BE033
:102600003AA2F9E75B46089AFEF726F90B9B9B5C1A
:102610000A9A521E0A92137050EA0102F2D10A98E5
:10262000ADEB000000F1200B600702D524F48034EC
:1026300001E04FF00109D94502DDA9EB0B0000E0F4
:10264000002000EB0B0141440890AAEB010AE003D3
:1026500006D4DDE90F232146504600F063F8064416
:102660004FF0000908E009A911F80900DDE90F128F
:10267000904709F10109761CC145F4DBE0030CD554
:10268000DDE90F232146504600F04CF8064404E0F3
:10269000DDE90F1230209047761C0899481E0890FB
:1026A0000029F5DC08E00A980A990078491C0A918B
:1026B000DDE90F129047761CBBF10001ABF1010B75
:1026C000F1DC21465046DDE90F2300F019F80644FD
:1026D0006D1C21E60928010030313233343536379C
:1026E000383961626364656600000000303132335E
:1026F00034353637383941424344454600000000FE
:102700002DE9F041044600251E461746880404D4EE
:1027100005E039462020B0476D1C641EF9D52846D7
:10272000BDE8F0812DE9F041044600251E469046A3
:10273000C80301D5302700E02027880404D505E030
:1027400041463846B0476D1C641EF9D52846BDE8A1
:10275000F08100002DE9FE4F06460F460025684631
:1027600001F024FA002442E056F8240057F824101F
:10277000A0EB010ABAF1000F01DB514601E0CAF1FA
:1027800000010846FDF79BFF83464FF08F41FDF7A0
:10279000D0FD80465DF824000021FEF749F816D0F0
:1027A0005DF824104046FDF7C4FD82464FF07E518F
:1027B000FDF787FD814629F0004A0F48416A5046DF
:1027C000FEF740F812D20120A04005430EE00A486F
:1027D000C1694046FEF72CF805D30748016A404618
:1027E000FEF730F802D20120A0400543641C032C00
:1027F000BADB2846BDE8FE8FF05D00082DE9F04DFC
:102800008D4F21F0004A86B005460C46BA452ADBBA
:10281000AAEB070028430AD08848824501DC1AD178
:10282000CDB106B02846BDE8F04DFFF73EBD844A65
:10283000844B2846FDF762FE07460E46824A834BCC
:1028400028462146FDF75AFE06B03A463346BDE813
:10285000F04DFDF7ACBD0120FFF74AFD06B0BDE825
:10286000F04DFFF727BD7A48824542DABAF1795F29
:102870000BDA2846FFF7B0FC042808BFFFF720FD5D
:10288000284606B02146BDE8F08D2A460B46104684
:10289000FDF734FE834602466E480E460B4606217F
:1028A0007844FFF7ADFC5A463346FDF727FE8046D5
:1028B00069488A465A46334604217844FFF7A0FC0B
:1028C0005A463346FDF71AFE00223B46FDF76FFDE0
:1028D00002460B4640465146FDF782FE2A462346F5
:1028E000FDF70CFE06B02A462346BDE8F04DFDF785
:1028F0005EBD284624F0004100223D463B46FDF7E0
:10290000FAFD4FF0FF32FEF79DF8064602465348A7
:102910000F460B4606217844FFF772FC32463B46D1
:10292000FDF7ECFDCDE900014D4832463B46042160
:102930007844FFF765FC32463B46FDF7DFFD002299
:102940002B46FDF734FD834602913046394602F0AE
:10295000BFFF804643480D46504517DCDDE90001C6
:102960005A46029BFDF73CFE42462B46FDF7C6FD4C
:1029700042462B46FDF71BFD0122FEF763F8304A65
:10298000304BFDF7B5FD304A304B4CE04FF0000ABC
:1029900052460B464046FDF70AFDCDE9031052466C
:1029A0002B4610461946FDF7A9FD32463B46FDF77A
:1029B000A2FDDDE90332FDF713FE06460F46DDE911
:1029C00000015A46029BFDF70BFE8346009101224F
:1029D00030463946FEF736F8194A1A4BFDF78BFD9B
:1029E00006460F46012240462946FEF72BF85A4676
:1029F000009BFDF783FD32463B46FDF779FD064619
:102A00000F46012250462946FEF71CF80E4DDFF80E
:102A100058802A464346FDF76EFD32463B46FDF799
:102A20006AFD2A464346FDF766FD002CD8BF81F0BB
:102A3000004106B0BDE8F08D0000F03F0000F07FDF
:102A4000075C143326A6913C182D4454FB21F93F12
:102A50000000E03F6C41000082410000F6400000B1
:102A60000C4100003333EF3FFB21E93F2DE9F84FE4
:102A700004460D4621F0004000917349814211DC6B
:102A80007249884201DC06D12CB120462946BDE8B6
:102A9000F84FFFF70ABC6E48002DCCBF6D496E4958
:102AA000BDE8F88F6D49814211DD6D498142D8BF83
:102AB0004FF0FF366DDD20462946FFF78DFB0428D9
:102AC00008BFFFF7FDFB20462946BDE8F88F6549A2
:102AD000654F25F00045814233DD6449814219DDAF
:102AE000002632464FF0804320462946FDF75FFC22
:102AF00080468A46012220462946FDF7A3FF002290
:102B00003B46FDF7F5FC42465346FDF769FD04469A
:102B10000D463EE001260022BA463B4620462946A5
:102B2000FDF745FC80460F460022534620462946C5
:102B3000FDF7DEFC42463B46FDF752FD04460D46DE
:102B400027E04B4981421BDDDFF828A10226002245
:102B5000534620462946FDF7D1FC00223B46FDF7AF
:102B600026FC80460F460022534620462946FDF7A4
:102B7000BFFC42463B46FDF733FD04460D4608E0E8
:102B8000032622462B4600203B49FDF729FD04463B
:102B90000D4622462B4610461946FDF7AFFC8B46E4
:102BA000824602460B46FDF7A9FC0746024633481B
:102BB00088460B4606217844FFF722FB52465B46C7
:102BC000FDF79CFC82462E488B463A46434605213B
:102BD0007844FFF715FB3A464346FDF78FFC024663
:102BE0000B46002E504659460CDAFDF7E0FB224614
:102BF0002B46FDF783FC01B022462B46BDE8F04F83
:102C0000FDF779BCFDF7D3FB22462B46FDF776FC9A
:102C10001C4A7A4402EBC603D3E90023FDF768FCA3
:102C200022462B46FDF764FC174A7A4402EBC603A2
:102C3000D3E90023FDF75FFC009A002AB8BF81F0BA
:102C40000041BDE8F88F0000000010440000F07F54
:102C5000182D4454FB21F93FFB21F9BF0000DC3F54
:102C60000000203E0000F33F0000F03F0000E63F80
:102C7000008003400000F83F0000F0BF0E3F00005E
:102C8000CC3E00006A3E0000323E00002DE9F04DCF
:102C90009446CCF1000423F000464CEA0404594F5A
:102CA00046EAD4749A46884621F00042BC4206D8CF
:102CB000454240EA050442EAD474BC4204D9BDE866
:102CC000F04D6246FFF7F4BAAAF14055A5F17F65D1
:102CD00055EA0C040BD0022404EAAA744A4DDFF82A
:102CE0002CE144EAD87452EA000B04D00CE0BDE8B1
:102CF000F04DFFF7BBBE002C14BF012CBDE8F08DDA
:102D0000022C30D0032C32D056EA0C0B0AD0BE4233
:102D100020D1BA4209D126F0804622F080423346C3
:102D2000114617E000291ADB25E0DFF8E4B0FB4488
:102D3000002C04BFDBE90001BDE8F08D012C02BFCF
:102D4000DBE9000181F00041BDE8F08D022C0AD0E2
:102D5000032C0CD0BA4212D1B8F1000F0BDA2A487A
:102D60002C49BDE8F08D28462B49BDE8F08D28465A
:102D70007146BDE8F08D24482849BDE8F08D921BCE
:102D800012153C2AC4BF204F244E10DCBAF1000FAC
:102D9000BEBF12F13C0F00273E4608DB6246FDF73E
:102DA0001FFC21F00041FFF761FE07460E4694B17B
:102DB000012C08BF86F000460DD0194A194B022C91
:102DC0003846314615D0FDF793FB2A46BDE8F04D55
:102DD000114BFDF78DBB0022134638463146FDF7F7
:102DE000F3FC04BF0220FFF783FA38463146BDE802
:102DF000F08DFDF77DFB2A46BDE8F04D064BFDF753
:102E00007ABB00000000F07F182D4454FB2109C05C
:102E1000C63D0000FB21F9BFFB210940FB21F93F22
:102E2000075C143326A6A13C08B501210420FEF757
:102E30006DFD6020ADF8000010208DF80300032028
:102E40008DF8020069460648FEF7D0F820210448B4
:102E5000FEF760F940210248FEF75EF908BD000068
:102E6000000801402DE9F0410446E07800F0C0067A
:102E7000E07800F03F05607800F0010098B1EF10B5
:102E80002846E91705EB5171C910A5EBC101491C92
:102E900001F0FF080B48006820B10A48414602686B
:102EA0003846904700BF607800F0080030B1054810
:102EB000406818B1B011034A516888470020BDE846
:102EC000F08100008C06002010B56FF00400FEF7C2
:102ED00095FE0A4800680A49B0FBF1F009490870FC
:102EE0000846007800EB4001C1EBC0104FF6FF71BF
:102EF00001EAC0000449088010BD0000B0050020B0
:102F000000127A00FA050020FC0500200146114A53
:102F100012884A434FF0E0235A6100229A611A4610
:102F2000126942F001021A6100BF4FF0E0221069FD
:102F300000F001021AB100F48032002AF5D04FF0FF
:102F4000E022126922F001024FF0E0231A61002210
:102F50009A617047FC0500200146114A12784A43E5
:102F60004FF0E0235A6100229A611A46126942F03A
:102F700001021A6100BF4FF0E022106900F0010267
:102F80001AB100F48032002AF5D04FF0E022126925
:102F900022F001024FF0E0231A6100229A6170478B
:102FA000FA05002038B5044664B120208DF80000F1
:102FB00028208DF8010030208DF8020038208DF88F
:102FC000030004E0A32204216846FDF7F0F86A46F6
:102FD000042140F69E2002F0A7FB01F091FF38BDCE
:102FE0003EB5044602208DF80000CA208DF801008D
:102FF000E3208DF8020009208DF803006A460421C1
:10300000682002F091FBA3208DF8000004F040003E
:1030100048B1C0208DF80100C8208DF80200C22000
:103020008DF8030006E0A3208DF801008DF8020062
:103030008DF8030004F4C07048B1C4208DF804007A
:10304000CC208DF80500C6208DF8060006E0A320F0
:103050008DF804008DF805008DF80600A3208DF88A
:1030600007008DF808008DF809006A460A2140F62D
:10307000A72002F059FB04F0030018B120208DF8BE
:10308000000002E0D8208DF800006A46012140F6D9
:10309000B62002F049FB04F0200018B1012000F036
:1030A000ADF802E0002000F0A9F804F4C07008B305
:1030B00004F4807060B1B2208DF800008B208DF890
:1030C0000100B6208DF802009B208DF803000BE074
:1030D000B0208DF8000080208DF80100B4208DF81C
:1030E000020090208DF803006A46042140F6A220D9
:1030F00002F01AFB04F0010020B3F8208DF8000064
:103100006A4601214FF40B6002F00EFBFA21072002
:1031100000F02CFC072000F0F3FB012000F013FC72
:10312000642000F0F3FC4FF4FA7000F002FDC821B7
:10313000304800F0A3FB282000F0BCFB0A2000F080
:10314000CCFB08E0D8208DF800006A4601214FF43E
:103150000B6002F0E9FA04F0020018B1D9208DF8F2
:10316000000002E0D8208DF800006A46012140F2FC
:103170003D7002F0D9FA04F0040018B1012000F00B
:1031800069F802E0002000F065F804F0100018B1C2
:103190000120FFF707FF02E00020FFF703FF44F0E4
:1031A00008001549488101F0ABFE002012498873E0
:1031B00004F0400018B10846807B801D887304F439
:1031C000C07020B10C48807B801D0B49887304F0CF
:1031D000140020B10848807B10300749887304F040
:1031E000030020B10448807B001D03498873002040
:1031F0003EBD000009E3CA028C0600203EB504462D
:103200006CB10EA1D1E900208968CDE900200291BE
:103210006A4609214FF4976002F086FA3EBD0AA281
:10322000D2E900109268CDE9010200916A460921B5
:103230004FF4976002F078FAF0E70000B8AAB38D77
:10324000B4980D355D000000B8AAAAAAB088C3C51D
:10325000C700000038B5044664B1C0208DF80000F6
:10326000C2208DF80100C4208DF80200C6208DF820
:10327000030004E08B2204216846FCF798FF6A46AD
:10328000042140F6982002F04FFA01F039FE38BDD3
:1032900010B5C8234FF48062024940F6F63001F0C1
:1032A000C3FC10BD185E00082DE9F04F8DB0074635
:1032B000884615469946DDE9166B002400203080CB
:1032C0006B49887B5A4605A901F07AFD18B1601E4A
:1032D0000DB0BDE8F08F6648807A00F01400002839
:1032E00067D09DF8140000069DF8151040EA0140D3
:1032F0009DF8161040EA01209DF817100843286039
:103300009DF8180000069DF8191040EA01409DF84C
:103310001A1040EA01209DF81B10084368609DF8D0
:103320001C0000069DF81D1040EA01409DF81E108B
:1033300040EA01209DF81F100843A8609DF8200076
:1033400000069DF8211040EA01409DF8221040EA55
:1033500001209DF823100843E86004F11000C4B276
:10336000286800140190686800140290A86800148E
:103370000390E8680014049001984043029901FB0F
:103380000100039901FB0100049901FB010ABAF154
:10339000706F02DBBAF1885F05DD01F0B1FD00203E
:1033A0003080401E94E7B6F9000040F48070308011
:1033B00000BF2F48807A00F0400020B305A9601CB0
:1033C000085C095D40EA012000B2A8F8000005A9E8
:1033D000E01C095C05AAA01C105C41EA002000B2B8
:1033E000A8F8020005A9601D095C201D105C41EAD7
:1033F000002000B2A8F80400A01DC4B2B6F9000075
:1034000040F0080030801A48408900F4C07008B3CA
:1034100005A9601C085C095D40EA012000B2388003
:1034200005A9E01C095C05AAA01C105C41EA00206B
:1034300000B2788005A9601D095C201D105C41EA7E
:10344000002000B2B880A01DC4B2B6F9000040F060
:10345000700030800648807A00F0030018B105A99A
:103460000819FFF7FFFC484601F04AF800202FE753
:103470008C06002070B588B0064601A801F028FA35
:10348000BDF804000021C90341EA5045C403444883
:10349000007A00F0030056F8200005904048007ABA
:1034A00000F0040010B10598404205903C48007AB5
:1034B000C0F3C10056F8200006903948007A00F0A9
:1034C000200010B10698404206903548007AC0F3BB
:1034D000811056F8200007903148008900F4807070
:1034E00010B10798404207900598C117A0FB04232C
:1034F00001FB043100FB0510810041EA9270059048
:103500000698C117A0FB042301FB043100FB051042
:10351000810041EA927006900798C117A0FB04232E
:1035200001FB043100FB0510810041EA9270079015
:103530000598000E8DF808000598000C8DF809001C
:103540000598000A8DF80A000598C0B28DF80B00A6
:103550000698000E8DF80C000698000C8DF80D00F2
:103560000698000A8DF80E000698C0B28DF80F007C
:103570000798000E8DF810000798000C8DF81100C8
:103580000798000A8DF812000798C0B28DF8130052
:1035900002AA0C214FF4257002F0C6F808B070BDE5
:1035A0008C06002030B585B0044616A207CA02ABCF
:1035B00007C3C82C03DD4FF0FF3005B030BDC82075
:1035C00090FBF4F0401E85B2280A8DF80000E8B2A6
:1035D0008DF801006A46022140F2162002F0A4F89C
:1035E00010B14FF0FF30E8E702AA0C2140F6C120ED
:1035F00002F09AF810B14FF0FF30DEE70448848102
:103600000020DAE7FEF2ABC4AAF1DFDFBBAFDFDFF9
:103610008C0600201FB504464848007A00F00300DD
:1036200054F8200001904548007A00F0040010B1E1
:103630000198404201904148007AC0F3C10054F81B
:10364000200002903D48007A00F0200010B102985E
:10365000404202903948007AC0F3811054F82000AB
:1036600003903648008900F4807010B103984042FE
:1036700003903349019880FB0101800F40EA8100EB
:1036800001902F49029880FB0110820042EA91705C
:1036900002902B49039880FB0110820042EA91704E
:1036A00003900198000E8DF800000198000C8DF831
:1036B00001000198000A8DF802000198C0B28DF84F
:1036C00003006A4604214FF4747002F02DF818B11B
:1036D0004FF0FF3004B010BD0298000E8DF80000CE
:1036E0000298000C8DF801000298000A8DF8020083
:1036F0000298C0B28DF803006A4604214FF4757039
:1037000002F012F810B14FF0FF30E3E70398000E1B
:103710008DF800000398000C8DF801000398000A52
:103720008DF802000398C0B28DF803006A460421A8
:103730004FF4767001F0F8FFCCE700008C06002013
:1037400009E3CA0210B586B0044647A0006803909A
:1037500046A00068029046A00068019045A000685D
:10376000009004F0030003A9085C8DF8140003A87E
:10377000C4F3C101405C8DF8150003A8C4F38111A6
:10378000405C8DF8160004F0030002A9085C8DF877
:10379000100002A8C4F3C101405C8DF8110002A81A
:1037A000C4F38111405C8DF8120005AA032140F298
:1037B000264001F0B9FF18B14FF0FF3006B010BD40
:1037C00004AA032140F22A4001F0AEFF10B14FF0ED
:1037D000FF30F3E7019805900098049004F004008E
:1037E00058B19DF8140040F001008DF814009DF8C8
:1037F000100040F001008DF8100004F0200058B1D6
:103800009DF8150040F001008DF815009DF811009D
:1038100040F001008DF8110004F4807058B19DF85B
:10382000160040F001008DF816009DF8120040F0DF
:1038300001008DF8120005AA03214FF4886001F001
:1038400073FF10B14FF0FF30B8E704AA032140F234
:10385000314001F069FF10B14FF0FF30AEE706488C
:1038600004810020AAE700004CCD6C000CC92C009C
:1038700036567600264666008C060020F8B50546CA
:103880000E464FF47A7095FBF0F000FB06F4200E24
:103890008DF80000200C8DF80100200A8DF8020040
:1038A000E0B28DF803006A4604214FF4AE7001F0D7
:1038B0003BFFF8BD38B50446052094FBF0F084B218
:1038C00020128DF80000E0B28DF801006A46022156
:1038D0004FF4AD7001F028FF38BD38B5044605201F
:1038E00094FBF0F084B220128DF80000E0B28DF865
:1038F00001006A4602214FF4AC7001F015FF38BD9B
:1039000038B504460020009004F0010020B19DF875
:10391000000040F03000009004F0020020B19DF85B
:10392000000040F00C00009004F0040020B19DF86D
:10393000000040F0030000906A4601214FF4A4709B
:1039400001F0F2FE38BD38B50446012C01DA01243D
:1039500002E0042C00DD0424601EC0B200906A4620
:10396000012140F24F1001F0DFFE38BD2DE9FC4788
:1039700006460F4606F0070010B1B7F5C86F03DD25
:103980004FF0FF30BDE8FC873846FCF7A1FE8146CA
:103990005949FCF7CEFC8046684600F073FF9DF85D
:1039A0000000022806D0042816D0082826D01028A7
:1039B00048D135E04FF08D414046FCF788FC814608
:1039C000FCF7C2FE84B24D494046FCF780FC8146BC
:1039D000FCF7BAFE85B238E04FF08C414046FCF768
:1039E00076FC8146FCF7B0FE84B245494046FCF7C0
:1039F0006EFC8146FCF7A8FE85B226E04FF08B41B5
:103A00004046FCF764FC8146FCF79EFE84B23D49CB
:103A10004046FCF75CFC8146FCF796FE85B214E05C
:103A20004FF08A414046FCF752FC8146FCF78CFE81
:103A300084B235494046FCF74AFC8146FCF784FED7
:103A400085B202E04FF0FF309CE700BF20128DF8F6
:103A50000400E0B28DF8050028128DF80600E8B2E7
:103A60008DF8070006F00100A0B101AA02214FF471
:103A7000EA7001F059FE10B14FF0FF3082E70DF10E
:103A8000060202214FF4927001F04EFE10B14FF089
:103A9000FF3077E706F00200A0B101AA02214FF43F
:103AA000EC7001F041FE10B14FF0FF306AE70DF10C
:103AB000060202214FF4947001F036FE10B14FF06F
:103AC000FF305FE706F00400A0B101AA02214FF425
:103AD000EE7001F029FE10B14FF0FF3052E70DF10A
:103AE000060202214FF4967001F01EFE10B14FF055
:103AF000FF3047E7002045E700004843000040460C
:103B00000000C045000040450000C04438B50446F0
:103B1000052094FBF0F085B228128DF80000E8B281
:103B20008DF801006A4602214FF4EF7001F0FCFDB0
:103B300038BD38B50446052094FBF0F085B2281254
:103B40008DF80000E8B28DF801006A4602214FF4BA
:103B5000ED7001F0E9FD38BD70B505460C4605F184
:103B600030000749087704F13000487705A1044880
:103B7000FDF7DAF94FF47A70FFF7C8F970BD00006D
:103B8000040400200000000070B504460D46E1B2B8
:103B90000548FEF79AFA00BF80210348FEF7C8F9EE
:103BA0000028F9D0204670BD003801407CB505469C
:103BB00028494968087801AB04220D21FDF779FDF9
:103BC00008B107207CBD9DF80700C0F301109DF8E7
:103BD000041001F0E00140EAE1008DF800009DF8DA
:103BE0000700C0F381009DF8051001F0E00140EAF4
:103BF000E1008DF801009DF8070000F003009DF83A
:103C0000061001F0E00140EAE1008DF80200002416
:103C10001CE01DF8040018B9002045F8240013E04A
:103C20000D4845F8240006E055F824000B49FCF740
:103C30004EFB45F824001DF80400401EC0B20DF8EC
:103C400004000028F0D100BF601CC4B2032CE0DBEC
:103C50000020B7E7C40500207B14AE3E1D5A843F08
:103C60002DE9F04F87B005460C46914601208DF8AE
:103C7000100000208DF81100FE4A1268917CFD4A68
:103C80005268107804AB0222FDF7B9FD20B14FF065
:103C9000FF3007B0BDE8F08FC820FFF737F90020EC
:103CA0008DF81000F34A1268D17BF24A52681078FE
:103CB00004AB0122FDF7A3FD10B14FF0FF30E8E7A0
:103CC000EC4A12685179EB4A5268107804AB012231
:103CD000FDF795FD10B14FF0FF30DAE7E54A1268C5
:103CE000917CE44A5268107804AB0122FDF787FD0D
:103CF00010B14FF0FF30CCE7DE4A1268D17DDD4ACB
:103D00005268107804AB0122FDF779FD10B14FF035
:103D1000FF30BEE7D74A12681179D64A5268107848
:103D200004AB0122FDF76BFD10B14FF0FF30B0E79F
:103D30000C208DF81000CF4A12681179CD4A5268D4
:103D4000107804AB0122FDF75AFD10B14FF0FF309F
:103D50009FE70F20FFF7DAF8C648806A407A8DF8AF
:103D60001000C44A12689178C24A5268107804ABB5
:103D70000122FDF744FD10B14FF0FF3089E7BD4847
:103D8000806A007A8DF81000BA4A12685178B94AF0
:103D90005268107804AB0122FDF731FD10B14FF0ED
:103DA000FF3076E7B9F1000F07D0B248806A807A19
:103DB00040F0E0008DF8100004E0AE48806A807AA0
:103DC0008DF81000AB4A12689179AA4A52681078AF
:103DD00004AB0122FDF713FD10B14FF0FF3058E79F
:103DE000B9F1000F07D0A348806AC07A40F0E00024
:103DF0008DF8100003E0A048C07A8DF810009D4AAD
:103E00001268D1799B4A5268107804AB0122FDF701
:103E1000F6FC10B14FF0FF303BE7B9F1000F02D0D4
:103E2000C820FFF773F840208DF81000914A1268FF
:103E30001179904A5268107804AB0122FDF7DFFC3B
:103E400010B14FF0FF3024E778208DF81000894A38
:103E500012685179874A5268107804AB0122FDF745
:103E6000CEFC10B14FF0FF3013E783498889FFF78C
:103E70004DF800208DF810007E4A126851797D4A75
:103E80005268107804AB0122FDF7B9FC10B14FF075
:103E9000FF30FEE6774A1268917A764A52681078C7
:103EA00004AB0222FDF705FC10B14FF0FF30F0E645
:103EB0009DF811009DF8101040EA012B0C209BFB8F
:103EC000F0F0C6B20020A86068602860A060606062
:103ED0002060824665E0674A1268D17A654A526876
:103EE000107804AB0C22FDF7E4FB10B14FF0FF306B
:103EF000CFE69DF811009DF8101040EA012000B2B5
:103F0000ADF808009DF813009DF8121040EA01205A
:103F100000B2ADF80A009DF815009DF8141040EAB3
:103F2000012000B2ADF80C00BDF90810206808446B
:103F30002060BDF90A10606808446060BDF90C108B
:103F4000A0680844A0609DF817009DF8161040EA8C
:103F5000012000B2ADF800009DF819009DF818107E
:103F600040EA012000B2ADF802009DF81B009DF868
:103F70001A1040EA012000B2ADF80400BDF90010AB
:103F8000286808442860BDF9021068680844686021
:103F9000BDF90410A8680844A8600AF1010000F007
:103FA000FF0AB24597DB3448D0F800C02868C11733
:103FB000090441EA10410704624600233846FCF731
:103FC000B3F832460023CDE90201FCF7ADF82860D2
:103FD0002948D0F800C06868C117090441EA1041B7
:103FE0000704624600233846FCF79EF83246002359
:103FF000CDE90201FCF798F868601F48D0F800C0CE
:10400000A868C117090441EA104107046246002369
:104010003846FCF789F832460023CDE90201FCF767
:1040200083F8A8601448D0F804C02068C1170904B8
:1040300041EA10410704624600233846FCF774F851
:1040400032460023CDE90201FCF76EF820600A48F1
:10405000D0F804C06068C117090441EA10410704A0
:10406000624600233846FCF75FF832460023CDE96C
:10407000020103E0C4050020F05D0008FCF754F8DD
:1040800060601148D0F804C0A068C117090441EA73
:1040900010410704624600233846FCF745F83246D3
:1040A0000023CDE90201FCF73FF8A060A0680028DA
:1040B00004DDA068A0F58030A06003E0A06800F5F2
:1040C0008030A0600020E4E5F05D00082DE9FC5F91
:1040D00006460F4600253D494968087801AB032292
:1040E0000D21FDF7E6FA10B10720BDE8FC9F9DF811
:1040F000040000F01F008DF804009DF8050000F09A
:104100001F008DF805009DF8060000F01F008DF8D7
:104110000600002456E056F8240057F82410A0EBBF
:10412000010BBBF1000F01DB594601E0CBF10001AF
:104130000846FCF7C4FA4FF08F410090FCF7F9F8FD
:10414000814601A8005D68B321490868FCF7C0FA00
:10415000834659461F48FCF7ECF8804604E01E49A8
:104160004046FCF7B4F8804601A8005D401EC0B28E
:1041700001A908550028F2D141464846FCF7D9F874
:1041800083464FF07E51FCF79CF882462AF0004BA4
:104190000F4881695846FCF755FB12D20120A04018
:1041A00005430EE00A4801694846FCF741FB05D388
:1041B000074841694846FCF745FB02D20120A04070
:1041C0000543641C032CA6DB28468EE7C4050020AB
:1041D000F05D000800B04C4554E3853F10B58020E9
:1041E0000949086000F012F840200749091F0860DB
:1041F00000F00CF840200449086000F007F8802027
:104200000149091F086010BD14080140002001E0A9
:10421000411CC8B20A28FBDB7047000010B58020A3
:1042200007490860FFF7F2FF402005490860FFF7E3
:10423000EDFF40200249091D0860FFF7E7FF10BDB0
:104240001008014070B50024002516E06006040E39
:1042500040200C490860FFF7D9FF0A480838006879
:1042600000F0800008B1601CC4B240200549091D5F
:104270000860FFF7CBFF681CC5B2082DE6DB2046BF
:1042800070BD00001008014070B50446002520E014
:1042900004F0800018B180200F49086003E08020FE
:1042A0000D49091D0860FFF7B1FF40200A49086069
:1042B000FFF7ACFF40200849091D0860072D02D117
:1042C0008020091F08606006040EFFF79FFF681C2E
:1042D000C5B2082DDCDB70BD1008014010B5802090
:1042E0000949086040200860FFF790FF80200649D8
:1042F000091D0860FFF78AFF40200349091D086077
:10430000FFF784FF10BD00001008014010B58020A9
:10431000054908604020091F0860FFF777FF8020EB
:104320000149091F086010BD1408014010B5802024
:104330000C490860FFF76AFF40200A490860FFF750
:1043400065FF08480838006800F0800008B10124C3
:1043500000E0002440200349091D0860FFF756FFD4
:10436000204610BD1008014010B50446204600F05C
:104370000FF80346E01C00F00BF843EAC00083B2DC
:10438000A01D00F005F843EA801083B2184610BD66
:10439000014691F90020002A01DD00201EE091F97C
:1043A0000020002A01DA042018E091F90120002AF7
:1043B00001DD012012E091F90120002A01DA052037
:1043C0000CE091F90220002A01DD022006E091F9BB
:1043D0000220002A01DA062000E0072070470000D2
:1043E00070B504462046FCF7DCF905460022074B71
:1043F000FCF7EAF904D220210548FCF78DFE03E022
:1044000020210348FCF786FE70BD000000004940F3
:104410000008014070B506460C46154606F130000E
:104420000849487704F13000887705F13000C877F3
:1044300005A10448FCF778FD4FF47A70FEF766FD9D
:1044400070BD0000CC04002000000000FDF710FB50
:1044500001F0F0FBFCF75CFC4BE0FCF7A3FE254908
:10446000086001F081FB2449087022480068FCF7CD
:1044700052F90A2190FBF1F201FB12041D48006879
:10448000FCF749F90A2190FBF1F090FBF1F201FBF6
:1044900012051A4917480068FBF74BFF8046174979
:1044A000FBF747FF0746FCF736F906462246294642
:1044B000FFF7B0FF104800780A2190FBF1F201FBF2
:1044C00012040D48007890FBF1F090FBF1F201FB33
:1044D000120521462846FFF73FFB00F013F801F0D4
:1044E000CFFB0548007801F019FA02480068FFF791
:1044F00077FFB2E7A40500209405002000002041CA
:104500007047000010B50024FDF76CF8FCF786FB3F
:104510000C48006832280BDD4FF480710A48FCF724
:10452000F9FD3220FEF7F2FC01200849086007E09F
:104530000020064908604FF480710348FCF7ECFD49
:1045400010BD0000AC05002000080140A8050020B7
:1045500070B50446002624F00104184890F82400A1
:1045600008B1002070BD1548807A10B94FF0FF30B7
:10457000F8E71248057C807A204010490874084604
:10458000007CA04202D04FF0FF3600E0002614B9B4
:104590000A48007D18B1012001F052F902E0002024
:1045A00001F04EF93CB100F0ABFC20B103480574BA
:1045B0004FF0FF30D6E73046D4E70000C4050020B6
:1045C0002DE9F04F99B004460D4616464FF07E5740
:1045D0004FF000084FF000094FF0000A12A813A98D
:1045E00018AB0EAACDE9001014A916A8FEF75CFEC0
:1045F00018B1012019B0BDE8F08FBDF84C0000F4EF
:10460000807000287ED00E98FCF759F883464FF052
:104610009D41FBF78EFE07460F98FCF750F8834646
:104620004FF09D41FBF785FE80461098FCF747F858
:1046300083464FF09D41FBF77CFE81461198FCF7C5
:104640003EF883464FF09D41FBF773FE82463946A4
:104650004FF08040FBF73BFE49460590FBF737FEE5
:10466000414607904FF04040FBF731FE5146059020
:10467000FBF72DFE06900799FBF7D1FD8346FCF76B
:1046800090F8CDE90801FEF7B9F84FF06632544BC7
:10469000CDE90A01FBF732FFCDE90C01FCF7ACF8DC
:1046A000206049464FF08040FBF711FE49460290DA
:1046B000FBF70DFE414604904FF04040FBF707FE2C
:1046C00041460290FBF703FE03900499FBF7F9FDC6
:1046D00083464FF07E51FBF7A2FD0590FCF761F891
:1046E000CDE9080139464FF08040FBF7F0FD414627
:1046F0000390FBF7ECFD494604904FF08040FBF738
:10470000E6FD00E068E051460390FBF7E0FD8346DC
:104710000499FBF784FD0590FCF743F8CDE9060109
:10472000DDE90823FEF7B2FA4FF066322C4BCDE9F3
:104730000A01FBF7E3FECDE90C01FCF75DF8286008
:1047400051465046FBF7C3FD494604904846FBF7E7
:10475000BEFD414603904046FBF7B9FD3946019046
:104760003846FBF7B4FD00900199FBF758FD029025
:104770000399FBF7A6FD83460499FBF7A2FD05907C
:10478000FCF70FF8CDE9080151463846FBF79FFDCD
:10479000494604904046FBF79AFD03900499FBF7C5
:1047A0003EFD4FF080410590FBF791FD8346FBF7FE
:1047B000F8FFCDE90601DDE90823FEF767FA4FF0BF
:1047C0006632074BCDE90A01FBF798FECDE90C01F3
:1047D000FCF712F8306001E002200BE7002009E747
:1047E00066A64C4070B50024FCF79EFD00F024F94D
:1047F000002840D1782000F02FFFC4B20CB1012076
:1048000070BD7820FFF7A4FEC4B20CB10220F7E718
:10481000642000F0D3FEC4B20CB10320F0E7FEF731
:1048200037FDC4B20CB10420EAE71548FFF79CFD40
:104830000546FEF787FFC4B20CB10520E0E740F261
:104840007310FEF7CDFBC4B20CB10620D8E764208C
:10485000FEF7A8FEC4B20CB10720D1E700F0A4FF18
:1048600004460CB10820CBE7012000F0A3FDC4B240
:104870001CB10920C4E70A20C2E70020C0E70000FD
:10488000F005002001461148407A30B1012807D0D8
:10489000022808D003280CD108E0022008700BE0A1
:1048A0000420087008E00820087005E01020087057
:1048B00002E04FF0FF30704700BF0448C07C18B1E1
:1048C00008784006000E08700020F4E7C4050020B8
:1048D00001461348407A30B1012808D002280AD096
:1048E000032810D10BE04FF4804008800EE041F621
:1048F0009C7008800AE04FF48050088006E04FF476
:104900000060088002E04FF0FF30704700BF0448AD
:10491000C07C10B10888401008800020F5E7000036
:10492000C405002001460248007C08700020704742
:10493000C405002001460F48007A30B1012807D095
:10494000022809D003280FD10AE0FA2008800EE0DF
:104950004FF4FA7008800AE04FF47A70088006E09D
:104960004FF4FA60088002E00020088000BF00BF1A
:1049700000207047C405002001460E48007A30B17F
:10498000012807D0022808D003280CD108E00A48E3
:1049900008600BE00948086008E00948086005E085
:1049A0000848086002E04FF0FF30704700BF002069
:1049B000FBE70000C4050020000003430000834221
:1049C000333303423333834101461248C07A082807
:1049D00017D2DFE800F01704070A0D101318BC20E7
:1049E000088013E06220088010E02A2008800DE093
:1049F000142008800AE00A20088007E005200880CB
:104A000004E000BF00BF0020088000BF00BF0020FE
:104A100070470000C40500200146064890F82400B5
:104A200010B14FF0FF3070470248C0890880002065
:104A3000F9E70000C40500201CB580208DF80000B7
:104A4000654A1268917C644A526810786B4601226C
:104A5000FCF7D5FE10B14FF0FF301CBD6420FEF70F
:104A600055FA00208DF800005B4A1268917C5A4A82
:104A7000526810786B460122FCF7C1FE10B14FF06E
:104A8000FF30EAE7544A1268917D534A5268107821
:104A90006B460622FCF70DFE10B14FF0FF30DCE74D
:104AA0009DF80500C007400F9DF8031001F00101BB
:104AB00040EA41009DF8011001F0010140EA0104C3
:104AC00094B1012C03D101214348C17431E0022C7F
:104AD00003D100214048C1742BE021463FA0FDF7DF
:104AE0006BFB4FF0FF30B8E73B4A1268D1783A4A87
:104AF000526810786B460122FCF7DBFD10B14FF0D5
:104B0000FF30AAE79DF8000000F00F042CB93D48E3
:104B1000FDF752FB4FF0FF309FE7042C06D13AA07F
:104B2000FDF74AFB01212C48C17402E000212A480C
:104B3000C174FF2128488172FF2027490872FF2194
:104B400025484172C1724FF6FF71C181FF21017486
:104B500081740121017380F82210002180F8231054
:104B6000417501751630016041608160163880F82A
:104B7000241080F82510C1844FF4FA6000F062FC24
:104B800010B14FF0FF3068E7022000F02BFB10B1AE
:104B90004FF0FF3061E72A2000F0CEFC10B14FF05B
:104BA000FF305AE7322000F009FD10B14FF0FF301E
:104BB00053E70020FFF7CCFC10B14FF0FF304CE77B
:104BC000002000F051FB10B14FF0FF3045E700200E
:104BD00000F042FD002040E7C4050020556E7375CB
:104BE00070706F7274656420736F6674776172653C
:104BF0002070726F64756374207265762025642E50
:104C00000A000000006B000848616C662073656E46
:104C10007369746976697479207061727420666F43
:104C2000756E642E0A0000002DE9F04385B005463C
:104C30000E4690469946294890F8250020B14FF03D
:104C4000FF3005B0BDE8F08316B94FF0FF30F8E74C
:104C5000002423E0281B102801DD102000E0281B81
:104C600087B232193946204600F05EFD10B14FF090
:104C7000FF30E6E701AA3946204600F001F910B1FD
:104C80004FF0FF30DDE730193A4601A9FBF7BAFAD9
:104C900010B16FF00100D4E7E01984B2AC42D9DB67
:104CA0004FEA28208DF8000008F0FF008DF8010081
:104CB0000A4A1268917E094A526810786B460222AD
:104CC000FCF79DFD10B14FF0FF30BAE7012103481A
:104CD00080F82510A0F826900020B2E7C405002037
:104CE00038B50446282C02DD4FF0FF3038BDDCB962
:104CF000002000F0EBFB00208DF8000007208DF86D
:104D000001002E4A1268917C2C4A526810786B463A
:104D10000222FCF774FD10B14FF0FF30E6E70021EE
:104D2000264801750020E1E7012000F0CFFB20209C
:104D30008DF80000012C06D100208DF8010005201F
:104D400000F0FAFB17E0052C06DC01208DF80100CD
:104D5000052000F0F1FB0EE0142C06DC02208DF89B
:104D600001000A2000F0E8FB05E003208DF80100B7
:104D7000142000F0E1FB9DF80100072101EB8010F9
:104D8000C0B28DF801000D4A1268917C0B4A52683E
:104D900010786B460222FCF732FD10B14FF0FF3065
:104DA000A4E70821054881720021017301210175E2
:104DB0000020FFF7CDFB002098E70000C40500208D
:104DC000F8B504460F4616462C4890F8240010B952
:104DD0004FF0FF30F8BD2948807A10B94FF0FF300E
:104DE000F8E7264A1268917A244A526810786B468E
:104DF0000222FCF75EFC10B14FF0FF30EAE79DF8AD
:104E000001009DF8001040EA0125A54203DA0020C8
:104E10003070401EDEE7194840684088B5EB600FEF
:104E200017DD164A1268517C144A526810786B4696
:104E30000122FCF73EFC10B14FF0FF30CAE79DF8AD
:104E4000000000F0100020B100F05AF86FF00100EF
:104E5000C0E7E2B2094B1B68D97A084B5B68187847
:104E60003B46FCF726FC10B14FF0FF30B2E795FB54
:104E7000F4F0401E30700020ACE70000C4050020B4
:104E8000F8B504460D46164616B94FF0FF30F8BD8A
:104E90001A48807A10B94FF0FF30F8E720128DF8E9
:104EA0000000E0B28DF801009DF80100284413498C
:104EB00049684989884202DD4FF0FF30E7E70F4A31
:104EC0001268117E0D4A526810786B460222FCF778
:104ED00096FC10B14FF0FF30D9E7EAB2074B1B68E0
:104EE000597D064B5B6818783346FCF7E2FB10B13E
:104EF0004FF0FF30CBE70020C9E70000C4050020D9
:104F000008B57048807A10B94FF0FF3008BD002016
:104F100000906C4A1268D17B6A4A526810786B46DE
:104F20000122FCF76CFC10B14FF0FF30EEE7654A50
:104F300012685179634A526810786B460122FCF777
:104F40005EFC10B14FF0FF30E0E75E4A1268117965
:104F50005C4A526810786B460122FCF750FC10B195
:104F60004FF0FF30D2E7574890F82400002853D084
:104F70000C200090534A12681179524A52681078F6
:104F80006B460122FCF73BFC10B14FF0FF30BDE750
:104F90003220FDF7BBFFC02000904A48807A00F025
:104FA000010020B19DF8000040F020000090454A2B
:104FB00012681179434A526810786B460122FCF757
:104FC0001EFC10B14FF0FF30A0E73E48407C10B10E
:104FD0000220009001E0002000903A4A1268D17B44
:104FE000384A526810786B460122FCF708FC10B171
:104FF0004FF0FF308AE700200090324A1268517962
:10500000304A526810786B460122FCF7F8FB002802
:1050100055D04FF0FF3079E704200090294A1268FC
:105020001179284A526810786B460122FCF7E7FB99
:1050300010B14FF0FF3069E72248807C20B9214849
:10504000807A00F0010010B94020009001E060205B
:1050500000901C4A126811791A4A526810786B46FF
:105060000122FCF7CCFB10B14FF0FF304EE73220AD
:10507000FDF74CFF1348407C10B10120009001E087
:10508000002000900F4A1268D17B0E4A52681078B7
:105090006B460122FCF7B3FB10B14FF0FF3035E750
:1050A000084A12685179074A52681078054B103344
:1050B0000122FCF7A4FB10B14FF0FF3026E70020DF
:1050C00024E70000C40500202DE9F04F8DB0834691
:1050D0000F4602200C90424890F8240020B1002096
:1050E00000F068F9012600E0002603A8FFF722FC83
:1050F00005A8FFF7C7FB01A8FFF766FC02A8FFF7AA
:105100008BFC374890F80AA004A8FFF70BFC00249A
:1051100007E0002239465846FEF7A2FD00B902E03A
:10512000641C022CF5DB00BF022C01D1002528E015
:10513000002407E0012206A909A8FEF791FD00B9A5
:1051400002E0641C022CF5DB00BF022C01D100251B
:1051500017E006A93846FDF7FDFA00F0FF0809A997
:105160005846FEF7B3FF00F0FF090025B9F1000F24
:1051700001D145F00105B8F1000F01D145F002055C
:1051800000BFFF2016490872FF2115484172C17205
:105190004FF6FF71C181FF218172017401210173FA
:1051A000BDF80C0000F04EF99DF8140000F01AF85C
:1051B000BDF8040000F0C0F9BDF8080000F0FEF9E9
:1051C000504600F049FA9DF81000FFF7C1F916B1FA
:1051D000012000F0EFF828460DB0BDE8F08F000088
:1051E000C405002038B504461E48807A10B94FF037
:1051F000FF3038BD022C06D0042C07D0082C08D074
:10520000102C0CD108E0002000900BE0082000904A
:1052100008E01020009005E01820009002E04FF018
:10522000FF30E6E700BF0F48407A9DF80010B0EB72
:10523000E10F01D10020DCE70A4A1268D179094A5E
:10524000526810786B460122FCF7D9FA10B14FF082
:10525000FF30CEE79DF80000C110024841720020E7
:10526000C7E70000C405002038B504465048807CDC
:10527000A04201D1002038BD002C46D04C4A126813
:1052800011794B4A526810786B460122FCF711FAEB
:1052900010B14FF0FF30EEE79DF8000020F0200045
:1052A0000090434A12681179414A526810786B465F
:1052B0000122FCF7A4FA10B14FF0FF30DBE7032026
:1052C000FDF724FE02200090394890F8220020B11A
:1052D0009DF8000040F080000090354890F82300D1
:1052E00020B19DF8000040F030000090304A126874
:1052F000117D2F4A526810786B460122FCF77FFA25
:10530000002851D04FF0FF30B5E7294A12681179D3
:10531000274A526810786B460122FCF7CAF910B18F
:105320004FF0FF30A7E72248807A00F0010028B153
:105330009DF8000040F02000009004E09DF800007F
:1053400020F0200000901A4A12681179184A526819
:1053500010786B460122FCF752FA10B14FF0FF3083
:1053600089E70320FDF7D2FD114890F8220010B123
:105370008020009001E0002000900D4890F823006C
:1053800020B19DF8000040F030000090084A1268FB
:10539000117D074A526810786B460122FCF72FFAFC
:1053A00010B14FF0FF3066E701488474002062E7D7
:1053B000C405002038B50446214890F82400A042D6
:1053C00001D1002038BD24B31D4890F8250010B944
:1053D0004FF0FF30F6E7002000F032FA0020FFF730
:1053E00043FF1749C88C00F0E9F8002000901449E9
:1053F000496808786B4601222321FCF700FA012155
:105400000F4880F82410012000F01AFAFFF778FD09
:1054100013E0002000F014FA0948007C00900849CD
:10542000496808786B4601222321FCF7E8F900213E
:10543000034880F82410FFF763FD0020C2E7000056
:10544000C405002038B504461F48807A10B94FF0D3
:10545000FF3038BDFA2C09D0B4F5FA7F09D0B4F585
:105460007A7F09D0B4F5FA6F0CD108E000200090E3
:105470000BE00820009008E01020009005E01820C4
:10548000009002E04FF0FF30E3E700BF0E48007AE3
:105490009DF80010B0EBE10F01D10020D9E70A4AD6
:1054A00012689179084A526810786B460122FCF71D
:1054B000A6F910B14FF0FF30CBE79DF80000C01007
:1054C000014908720020C4E7C405002038B504462D
:1054D000184890F82300A04201D1002038BD14B133
:1054E0003020009001E0002000901248807C20B124
:1054F0009DF8000040F0020000900E4890F8220055
:1055000020B19DF8000040F080000090094A126828
:10551000117D084A526810786B460122FCF76FF93A
:1055200010B14FF0FF30D9E7024880F82340002047
:10553000D4E70000C405002038B504461E48807A30
:1055400010B94FF0FF3038BDBC2C02DB01200090B9
:1055500015E0622C02DB0220009010E02A2C02DB16
:10556000032000900BE0142C02DB0420009006E0E6
:105570000A2C02DB0520009001E0062000900E4876
:10558000C07A9DF80010884201D10020DBE70A4A6A
:1055900012689178084A526810786B460122FCF72D
:1055A0002EF910B14FF0FF30CDE79DF80010024802
:1055B000C1720020C7E70000C405002038B50446CA
:1055C0002448807A10B94FF0FF3038BD214890F858
:1055D000240010B14FF0FF30F7E71E48007D50B1B6
:1055E00034B1282C04DCE0B2FFF77AFB0020ECE7B2
:1055F0000020FFF775FB042C01DA042404E0B4F565
:105600007A7F01DD4FF47A744FF47A7090FBF4F0F6
:10561000401EC0B200900F4A126851780D4A52687D
:1056200010786B460122FCF7EAF810B14FF0FF301A
:10563000CBE79DF80000401C4FF47A7191FBF0F02D
:1056400081B20448C1810146C9894810FFF774FF3F
:105650000020BAE7C405002038B5044604F0700005
:1056600010B10120009005E014B10020009001E08D
:10567000402000902B4A1268917C2A4A5268107888
:105680006B460122FCF7BBF820B10021254881724E
:10569000481E38BD9DF8000020F0400121480173EC
:1056A0000020009004F0400020B99DF8000040F078
:1056B0000400009004F0200020B99DF8000040F0A4
:1056C0000200009004F0100020B99DF8000040F0A6
:1056D0000100009004F0080020B99DF8000040F09F
:1056E000380000900F4A1268D17C0E4A5268107838
:1056F0006B460122FCF783F820B100210948817232
:10570000481EC6E724B1082C02D00020FFF7DEFEB9
:1057100004488472002101753220FDF7F7FB002058
:10572000B7E70000C4050020F8B504460D4616464C
:1057300016B94FF0FF30F8BD1A48807A10B94FF013
:10574000FF30F8E720128DF80000E0B28DF801007C
:105750009DF801002844134949684989884202DDBF
:105760004FF0FF30E7E70F4A1268117E0D4A52688A
:1057700010786B460222FCF742F810B14FF0FF3070
:10578000D9E7EAB2074B1B68597D064B5B6818786E
:105790003346FCF734F810B14FF0FF30CBE7002070
:1057A000C9E70000C405002070B588B002A905A8AB
:1057B000FFF78AFC0446032C40D101A8FFF7DCF870
:1057C0000598FAF77CFF06460199FAF780FD054631
:1057D000FAF7A1FF05900698FAF771FF06460199BE
:1057E000FAF775FD0546FAF796FF06900798FAF75F
:1057F00066FF06460199FAF76AFD0546FAF78BFF40
:10580000079005A8FDF706FF6846FFF761F800203E
:105810000090BDF80010029848430290BDF80010B7
:10582000039848430390BDF800100498484304903F
:1058300002A8FDF71FFE002008B070BD0120FBE7A5
:1058400038B50446214890F82400C0B114B10220B4
:10585000009001E0002000901C4A1268D17B1B4A96
:10586000526810786B460122FBF7C9FF10B14FF068
:10587000FF3038BD9DF800101448417423E01348F0
:10588000807A10B94FF0FF30F3E724B10F48407C25
:1058900008B10020EDE714B10120009001E00020E4
:1058A00000900A4A1268D17B084A526810786B4609
:1058B0000122FBF7A4FF10B14FF0FF30D9E79DF8AC
:1058C0000010024841740020D3E70000C405002006
:1058D0002DE9F04106460F46FBF7DEF8041E0D46A3
:1058E00018BF0120284320F00040C0F17F6000F184
:1058F000E040C00F0ED0301C18BF0120384320F00C
:105900000040C0F17F6000F1E040C00F04BF012003
:10591000FCF7EEFC20462946BDE8F08110B50446B0
:105920008A480078312832D1642094FBF0F030307E
:10593000874988770A2094FBF0F00A2190FBF1F266
:1059400001FB12003030824981F820000A2094FBCC
:10595000F0F100FB114030307D4981F8210008460C
:10596000FCF74FF800207B49086008E04FF4E16045
:10597000FDF7CCFA77480068401C76490860754806
:1059800000680328F2DD002070490870DCE06F48F1
:105990000078322833D1642094FBF0F030306C4929
:1059A00081F820000A2094FBF0F00A2190FBF1F22C
:1059B00001FB12003030664981F822000A2094FB76
:1059C000F0F100FB11403030614981F8230062485A
:1059D000FCF717F800205F49086008E04FF4E16029
:1059E000FDF794FA5B480068401C5A490860594822
:1059F00000680328F2DD002054490870A4E05348F1
:105A00000078332832D1642094FBF0F030305349D1
:105A100088770A2094FBF0F00A2190FBF1F201FB59
:105A2000120030304D4981F820000A2094FBF0F13B
:105A300000FB11403030494981F821000846FBF74E
:105A4000E0FF00204349086008E04FF4E160FDF703
:105A50005DFA40480068401C3E4908603D480068C7
:105A60000328F2DD0020394908706DE037480078DE
:105A7000342832D1642094FBF0F0303038498877F4
:105A80000A2094FBF0F00A2190FBF1F201FB1200D6
:105A90003030334981F820000A2094FBF0F100FBFC
:105AA000114030302E4981F821000846FBF7A9FF4C
:105AB00000202849086008E04FF4E160FDF726FA6D
:105AC00024480068401C23490860224800680328D5
:105AD000F2DD00201D49087036E0052C34DD1E2C57
